{"contracts/RUSDCFaucet.sol":{"RUSDCFaucet":{"abi":[{"type":"constructor","inputs":[{"name":"_usdc","type":"address","internalType":"address"}],"stateMutability":"nonpayable"},{"type":"function","name":"FAUCET_AMOUNT","inputs":[],"outputs":[{"name":"","type":"uint256","internalType":"uint256"}],"stateMutability":"view"},{"type":"function","name":"FAUCET_COOLDOWN","inputs":[],"outputs":[{"name":"","type":"uint256","internalType":"uint256"}],"stateMutability":"view"},{"type":"function","name":"lastFaucetTime","inputs":[{"name":"","type":"address","internalType":"address"}],"outputs":[{"name":"","type":"uint256","internalType":"uint256"}],"stateMutability":"view"},{"type":"function","name":"owner","inputs":[],"outputs":[{"name":"","type":"address","internalType":"address"}],"stateMutability":"view"},{"type":"function","name":"renounceOwnership","inputs":[],"outputs":[],"stateMutability":"nonpayable"},{"type":"function","name":"requestTokens","inputs":[],"outputs":[],"stateMutability":"nonpayable"},{"type":"function","name":"transferOwnership","inputs":[{"name":"newOwner","type":"address","internalType":"address"}],"outputs":[],"stateMutability":"nonpayable"},{"type":"function","name":"usdc","inputs":[],"outputs":[{"name":"","type":"address","internalType":"contract IERC20"}],"stateMutability":"view"},{"type":"function","name":"withdrawTokens","inputs":[],"outputs":[],"stateMutability":"nonpayable"},{"type":"event","name":"OwnershipTransferred","inputs":[{"name":"previousOwner","type":"address","indexed":true,"internalType":"address"},{"name":"newOwner","type":"address","indexed":true,"internalType":"address"}],"anonymous":false},{"type":"event","name":"TokensRequested","inputs":[{"name":"user","type":"address","indexed":true,"internalType":"address"},{"name":"amount","type":"uint256","indexed":false,"internalType":"uint256"}],"anonymous":false},{"type":"event","name":"TokensWithdrawn","inputs":[{"name":"owner","type":"address","indexed":true,"internalType":"address"},{"name":"amount","type":"uint256","indexed":false,"internalType":"uint256"}],"anonymous":false},{"type":"error","name":"CooldownNotExpired","inputs":[]},{"type":"error","name":"InsufficientFaucetBalance","inputs":[]},{"type":"error","name":"OwnableInvalidOwner","inputs":[{"name":"owner","type":"address","internalType":"address"}]},{"type":"error","name":"OwnableUnauthorizedAccount","inputs":[{"name":"account","type":"address","internalType":"address"}]},{"type":"error","name":"TransferFailed","inputs":[]}],"userdoc":{},"devdoc":{},"evm":{"bytecode":{"object":"60803460cd57601f61065e38819003918201601f19168301916001600160401b0383118484101760d15780849260209460405283398101031260cd57516001600160a01b0381169081900360cd57331560ba575f8054336001600160a01b0319821681178355604051939290916001600160a01b0316907f8be0079c531659141344cd1fd0a4f28419497f9722a3daafe3b4186f6b6457e09080a3600180546001600160a01b03191691909117905561057890816100e68239f35b631e4fbdf760e01b5f525f60045260245ffd5b5f80fd5b634e487b7160e01b5f52604160045260245ffdfe6080806040526004361015610012575f80fd5b5f3560e01c908163359cf2b71461036a575080633e413bee14610342578063715018a6146102eb57806376697640146102cd5780637bc1f6cc146102915780637d1d5d19146102745780638d8f2adb146101335780638da5cb5b1461010c5763f2fde38b1461007f575f80fd5b34610108576020366003190112610108576004356001600160a01b03811690819003610108576100ad61051c565b80156100f5575f80546001600160a01b03198116831782556001600160a01b0316907f8be0079c531659141344cd1fd0a4f28419497f9722a3daafe3b4186f6b6457e09080a3005b631e4fbdf760e01b5f525f60045260245ffd5b5f80fd5b34610108575f366003190112610108575f546040516001600160a01b039091168152602090f35b34610108575f3660031901126101085761014b61051c565b6001546040516370a0823160e01b8152306004820152906001600160a01b0316602082602481845afa918215610234575f9261023f575b5060209060018060a01b035f541690817f6352c5382c4a4578e712449ca65e83cdb392d045dfcf1cad9615189db2da244b84604051878152a260405193849263a9059cbb60e01b845260048401526024830152815f604482800301925af1908115610234575f91610205575b50156101f657005b6312171d8360e31b5f5260045ffd5b610227915060203d60201161022d575b61021f81836104ce565b810190610504565b816101ee565b503d610215565b6040513d5f823e3d90fd5b9091506020813d60201161026c575b8161025b602093836104ce565b810103126101085751906020610182565b3d915061024e565b34610108575f366003190112610108576020604051620151808152f35b34610108576020366003190112610108576004356001600160a01b03811690819003610108575f526002602052602060405f2054604051908152f35b34610108575f366003190112610108576020604051633b9aca008152f35b34610108575f3660031901126101085761030361051c565b5f80546001600160a01b0319811682556001600160a01b03167f8be0079c531659141344cd1fd0a4f28419497f9722a3daafe3b4186f6b6457e08280a3005b34610108575f366003190112610108576001546040516001600160a01b039091168152602090f35b34610108575f36600319011261010857335f52600260205260405f20546201518081018091116104ba5742106104ab576001546370a0823160e01b8252306004830152602090829060249082906001600160a01b03165afa8015610234575f90610475575b633b9aca0091501061046657335f5260026020524260405f2055604051633b9aca0081527fc3fb6c98272d7a0d5dc26727b61c00ece2e5bf3dbdc0284659e28d441c1ce06c60203392a260015460405163a9059cbb60e01b8152336004820152633b9aca00602482015290602090829060449082905f906001600160a01b03165af1908115610234575f916102055750156101f657005b6325bab55360e01b5f5260045ffd5b506020813d6020116104a3575b8161048f602093836104ce565b8101031261010857633b9aca0090516103cf565b3d9150610482565b633ce33ddb60e01b5f5260045ffd5b634e487b7160e01b5f52601160045260245ffd5b90601f8019910116810190811067ffffffffffffffff8211176104f057604052565b634e487b7160e01b5f52604160045260245ffd5b90816020910312610108575180151581036101085790565b5f546001600160a01b0316330361052f57565b63118cdaa760e01b5f523360045260245ffdfea2646970667358221220fc03fc32c8d160e99f623c656fa228c9bbad27498229f31b4d2b80fbb056861e64736f6c634300081c0033","linkReferences":{}},"methodIdentifiers":{"FAUCET_AMOUNT()":"76697640","FAUCET_COOLDOWN()":"7d1d5d19","lastFaucetTime(address)":"7bc1f6cc","owner()":"8da5cb5b","renounceOwnership()":"715018a6","requestTokens()":"359cf2b7","transferOwnership(address)":"f2fde38b","usdc()":"3e413bee","withdrawTokens()":"8d8f2adb"}}}}}