{"contracts/RikaManagement.sol":{"RikaManagement":{"abi":[{"type":"function","name":"AI_AGENT_ROLE","inputs":[],"outputs":[{"name":"","type":"bytes32","internalType":"bytes32"}],"stateMutability":"view"},{"type":"function","name":"DEFAULT_ADMIN_ROLE","inputs":[],"outputs":[{"name":"","type":"bytes32","internalType":"bytes32"}],"stateMutability":"view"},{"type":"function","name":"EMPLOYER_ROLE","inputs":[],"outputs":[{"name":"","type":"bytes32","internalType":"bytes32"}],"stateMutability":"view"},{"type":"function","name":"addAiAgent","inputs":[{"name":"agent","type":"address","internalType":"address"}],"outputs":[],"stateMutability":"nonpayable"},{"type":"function","name":"addEmployee","inputs":[{"name":"_name","type":"string","internalType":"string"},{"name":"_employeeAddress","type":"address","internalType":"address"},{"name":"_salary","type":"uint256","internalType":"uint256"}],"outputs":[],"stateMutability":"nonpayable"},{"type":"function","name":"addFunds","inputs":[{"name":"_amount","type":"uint256","internalType":"uint256"}],"outputs":[],"stateMutability":"nonpayable"},{"type":"function","name":"createSchedule","inputs":[{"name":"_employeeAddress","type":"address","internalType":"address"},{"name":"_startDate","type":"uint256","internalType":"uint256"},{"name":"_endDate","type":"uint256","internalType":"uint256"},{"name":"_interval","type":"uint8","internalType":"enum RikaManagement.Interval"}],"outputs":[],"stateMutability":"nonpayable"},{"type":"function","name":"deactivateEmployee","inputs":[{"name":"_employeeAddress","type":"address","internalType":"address"}],"outputs":[],"stateMutability":"nonpayable"},{"type":"function","name":"employeeSchedules","inputs":[{"name":"","type":"address","internalType":"address"},{"name":"","type":"address","internalType":"address"},{"name":"","type":"uint256","internalType":"uint256"}],"outputs":[{"name":"scheduleId","type":"uint256","internalType":"uint256"},{"name":"startDate","type":"uint256","internalType":"uint256"},{"name":"endDate","type":"uint256","internalType":"uint256"},{"name":"interval","type":"uint8","internalType":"enum RikaManagement.Interval"},{"name":"lastProcessedDate","type":"uint256","internalType":"uint256"},{"name":"isProcessed","type":"bool","internalType":"bool"},{"name":"isActive","type":"bool","internalType":"bool"}],"stateMutability":"view"},{"type":"function","name":"employeesByEmployer","inputs":[{"name":"","type":"address","internalType":"address"},{"name":"","type":"address","internalType":"address"}],"outputs":[{"name":"employeeAddress","type":"address","internalType":"address"},{"name":"name","type":"string","internalType":"string"},{"name":"salary","type":"uint256","internalType":"uint256"},{"name":"joiningDate","type":"uint256","internalType":"uint256"},{"name":"isActive","type":"bool","internalType":"bool"}],"stateMutability":"view"},{"type":"function","name":"employerBalances","inputs":[{"name":"","type":"address","internalType":"address"}],"outputs":[{"name":"","type":"uint256","internalType":"uint256"}],"stateMutability":"view"},{"type":"function","name":"employerEmployees","inputs":[{"name":"","type":"address","internalType":"address"},{"name":"","type":"uint256","internalType":"uint256"}],"outputs":[{"name":"","type":"address","internalType":"address"}],"stateMutability":"view"},{"type":"function","name":"getAllEmployeesWithDetails","inputs":[{"name":"_employer","type":"address","internalType":"address"}],"outputs":[{"name":"","type":"tuple[]","internalType":"struct RikaManagement.Employee[]","components":[{"name":"employeeAddress","type":"address","internalType":"address"},{"name":"name","type":"string","internalType":"string"},{"name":"salary","type":"uint256","internalType":"uint256"},{"name":"joiningDate","type":"uint256","internalType":"uint256"},{"name":"isActive","type":"bool","internalType":"bool"}]}],"stateMutability":"view"},{"type":"function","name":"getEmployeeDetails","inputs":[{"name":"_employer","type":"address","internalType":"address"},{"name":"_employeeAddress","type":"address","internalType":"address"}],"outputs":[{"name":"employeeAddress","type":"address","internalType":"address"},{"name":"name","type":"string","internalType":"string"},{"name":"salary","type":"uint256","internalType":"uint256"},{"name":"joiningDate","type":"uint256","internalType":"uint256"},{"name":"isActive","type":"bool","internalType":"bool"}],"stateMutability":"view"},{"type":"function","name":"getEmployer","inputs":[],"outputs":[{"name":"","type":"address","internalType":"address"}],"stateMutability":"view"},{"type":"function","name":"getEmployerBalance","inputs":[{"name":"_employer","type":"address","internalType":"address"}],"outputs":[{"name":"","type":"uint256","internalType":"uint256"}],"stateMutability":"view"},{"type":"function","name":"getNextPayrollDate","inputs":[{"name":"_employer","type":"address","internalType":"address"},{"name":"_employeeAddress","type":"address","internalType":"address"}],"outputs":[{"name":"nextPaymentDate","type":"uint256","internalType":"uint256"}],"stateMutability":"view"},{"type":"function","name":"getRoleAdmin","inputs":[{"name":"role","type":"bytes32","internalType":"bytes32"}],"outputs":[{"name":"","type":"bytes32","internalType":"bytes32"}],"stateMutability":"view"},{"type":"function","name":"getTotalPayrollLiability","inputs":[{"name":"_employer","type":"address","internalType":"address"}],"outputs":[{"name":"totalLiability","type":"uint256","internalType":"uint256"}],"stateMutability":"view"},{"type":"function","name":"grantRole","inputs":[{"name":"role","type":"bytes32","internalType":"bytes32"},{"name":"account","type":"address","internalType":"address"}],"outputs":[],"stateMutability":"nonpayable"},{"type":"function","name":"hasRole","inputs":[{"name":"role","type":"bytes32","internalType":"bytes32"},{"name":"account","type":"address","internalType":"address"}],"outputs":[{"name":"","type":"bool","internalType":"bool"}],"stateMutability":"view"},{"type":"function","name":"hasSufficientBalanceForPayroll","inputs":[{"name":"_employer","type":"address","internalType":"address"}],"outputs":[{"name":"","type":"bool","internalType":"bool"}],"stateMutability":"view"},{"type":"function","name":"initialize","inputs":[{"name":"_usdcToken","type":"address","internalType":"address"},{"name":"_employer","type":"address","internalType":"address"}],"outputs":[],"stateMutability":"nonpayable"},{"type":"function","name":"paused","inputs":[],"outputs":[{"name":"","type":"bool","internalType":"bool"}],"stateMutability":"view"},{"type":"function","name":"processAllPayrolls","inputs":[],"outputs":[],"stateMutability":"nonpayable"},{"type":"function","name":"removeAiAgent","inputs":[{"name":"agent","type":"address","internalType":"address"}],"outputs":[],"stateMutability":"nonpayable"},{"type":"function","name":"renounceRole","inputs":[{"name":"role","type":"bytes32","internalType":"bytes32"},{"name":"callerConfirmation","type":"address","internalType":"address"}],"outputs":[],"stateMutability":"nonpayable"},{"type":"function","name":"revokeRole","inputs":[{"name":"role","type":"bytes32","internalType":"bytes32"},{"name":"account","type":"address","internalType":"address"}],"outputs":[],"stateMutability":"nonpayable"},{"type":"function","name":"supportsInterface","inputs":[{"name":"interfaceId","type":"bytes4","internalType":"bytes4"}],"outputs":[{"name":"","type":"bool","internalType":"bool"}],"stateMutability":"view"},{"type":"function","name":"updateEmployeeSalary","inputs":[{"name":"_employeeAddress","type":"address","internalType":"address"},{"name":"_newSalary","type":"uint256","internalType":"uint256"}],"outputs":[],"stateMutability":"nonpayable"},{"type":"function","name":"updateSchedule","inputs":[{"name":"_employeeAddress","type":"address","internalType":"address"},{"name":"_scheduleId","type":"uint256","internalType":"uint256"},{"name":"_interval","type":"uint8","internalType":"enum RikaManagement.Interval"}],"outputs":[],"stateMutability":"nonpayable"},{"type":"function","name":"usdcToken","inputs":[],"outputs":[{"name":"","type":"address","internalType":"contract IERC20"}],"stateMutability":"view"},{"type":"function","name":"withdrawFunds","inputs":[{"name":"_amount","type":"uint256","internalType":"uint256"}],"outputs":[],"stateMutability":"nonpayable"},{"type":"event","name":"EmployeeAdded","inputs":[{"name":"employer","type":"address","indexed":true,"internalType":"address"},{"name":"employeeAddress","type":"address","indexed":true,"internalType":"address"},{"name":"name","type":"string","indexed":false,"internalType":"string"}],"anonymous":false},{"type":"event","name":"EmployeeDeactivated","inputs":[{"name":"employer","type":"address","indexed":true,"internalType":"address"},{"name":"employeeAddress","type":"address","indexed":true,"internalType":"address"}],"anonymous":false},{"type":"event","name":"EmployeeUpdated","inputs":[{"name":"employer","type":"address","indexed":true,"internalType":"address"},{"name":"employeeAddress","type":"address","indexed":true,"internalType":"address"}],"anonymous":false},{"type":"event","name":"FundsAdded","inputs":[{"name":"employer","type":"address","indexed":true,"internalType":"address"},{"name":"amount","type":"uint256","indexed":false,"internalType":"uint256"}],"anonymous":false},{"type":"event","name":"FundsWithdrawn","inputs":[{"name":"employer","type":"address","indexed":true,"internalType":"address"},{"name":"amount","type":"uint256","indexed":false,"internalType":"uint256"}],"anonymous":false},{"type":"event","name":"Paused","inputs":[{"name":"account","type":"address","indexed":false,"internalType":"address"}],"anonymous":false},{"type":"event","name":"RoleAdminChanged","inputs":[{"name":"role","type":"bytes32","indexed":true,"internalType":"bytes32"},{"name":"previousAdminRole","type":"bytes32","indexed":true,"internalType":"bytes32"},{"name":"newAdminRole","type":"bytes32","indexed":true,"internalType":"bytes32"}],"anonymous":false},{"type":"event","name":"RoleGranted","inputs":[{"name":"role","type":"bytes32","indexed":true,"internalType":"bytes32"},{"name":"account","type":"address","indexed":true,"internalType":"address"},{"name":"sender","type":"address","indexed":true,"internalType":"address"}],"anonymous":false},{"type":"event","name":"RoleRevoked","inputs":[{"name":"role","type":"bytes32","indexed":true,"internalType":"bytes32"},{"name":"account","type":"address","indexed":true,"internalType":"address"},{"name":"sender","type":"address","indexed":true,"internalType":"address"}],"anonymous":false},{"type":"event","name":"SalaryPaid","inputs":[{"name":"employer","type":"address","indexed":true,"internalType":"address"},{"name":"employeeAddress","type":"address","indexed":true,"internalType":"address"},{"name":"amount","type":"uint256","indexed":false,"internalType":"uint256"}],"anonymous":false},{"type":"event","name":"ScheduleCreated","inputs":[{"name":"employer","type":"address","indexed":true,"internalType":"address"},{"name":"employeeAddress","type":"address","indexed":true,"internalType":"address"},{"name":"scheduleId","type":"uint256","indexed":false,"internalType":"uint256"},{"name":"startDate","type":"uint256","indexed":false,"internalType":"uint256"},{"name":"endDate","type":"uint256","indexed":false,"internalType":"uint256"},{"name":"interval","type":"uint8","indexed":false,"internalType":"enum RikaManagement.Interval"}],"anonymous":false},{"type":"event","name":"ScheduleUpdated","inputs":[{"name":"employer","type":"address","indexed":true,"internalType":"address"},{"name":"employeeAddress","type":"address","indexed":true,"internalType":"address"},{"name":"scheduleId","type":"uint256","indexed":false,"internalType":"uint256"},{"name":"interval","type":"uint8","indexed":false,"internalType":"enum RikaManagement.Interval"}],"anonymous":false},{"type":"event","name":"Unpaused","inputs":[{"name":"account","type":"address","indexed":false,"internalType":"address"}],"anonymous":false},{"type":"error","name":"AccessControlBadConfirmation","inputs":[]},{"type":"error","name":"AccessControlUnauthorizedAccount","inputs":[{"name":"account","type":"address","internalType":"address"},{"name":"neededRole","type":"bytes32","internalType":"bytes32"}]},{"type":"error","name":"AlreadyInitialized","inputs":[]},{"type":"error","name":"EmployeeAlreadyExists","inputs":[]},{"type":"error","name":"EmployeeNotFound","inputs":[]},{"type":"error","name":"EnforcedPause","inputs":[]},{"type":"error","name":"ExpectedPause","inputs":[]},{"type":"error","name":"InsufficientAllowance","inputs":[]},{"type":"error","name":"InsufficientBalance","inputs":[]},{"type":"error","name":"InvalidAddress","inputs":[]},{"type":"error","name":"InvalidInitAddress","inputs":[]},{"type":"error","name":"InvalidSchedule","inputs":[]},{"type":"error","name":"OverlappingSchedule","inputs":[]},{"type":"error","name":"PayrollAlreadyProcessed","inputs":[]},{"type":"error","name":"SafeERC20FailedOperation","inputs":[{"name":"token","type":"address","internalType":"address"}]},{"type":"error","name":"ScheduleNotCompleted","inputs":[]},{"type":"error","name":"TransferFailed","inputs":[]},{"type":"error","name":"UnauthorizedAccess","inputs":[]},{"type":"error","name":"WithdrawalLocked","inputs":[{"name":"nextPayrollDate","type":"uint256","internalType":"uint256"}]},{"type":"error","name":"ZeroAmount","inputs":[]}],"userdoc":{},"devdoc":{},"evm":{"bytecode":{"object":"60808060405234601f5760ff196001541660015561232990816100248239f35b5f80fdfe6080806040526004361015610012575f80fd5b5f3560e01c90816301ffc9a714611ada57508063040f7f9414611a3d5780630424f63c1461198157806311eac85514611959578063155dd5ee146117ba57806315e1bbc41461167e5780632426bb3814611644578063248a9ca31461161257806325b8e7eb146115eb5780632e9db8d7146115b35780632f2909f3146115b35780632f2ff15d146115765780632fce02701461153d57806336568abe146114f9578063485cc955146113d75780635c975abb146113b55780636a663e181461130e5780636cf947cf1461100c578063769f6df214610ddb57806379278ca314610d6157806391d1485414610d195780639276ddbe14610c5f578063a217fddf14610c45578063a2b299c114610c19578063a3f2996a146109af578063b44a2e8914610901578063bb97eab714610576578063be99970514610436578063cf2622bd14610341578063d547741f146102ff578063de395c46146102b5578063ec34ece8146101ed5763fa85b26a14610187575f80fd5b346101e95760403660031901126101e9576101a0611b2d565b6001600160a01b03165f908152600460205260409020805460243591908210156101e9576020916101d091611d06565b905460405160039290921b1c6001600160a01b03168152f35b5f80fd5b346101e95760403660031901126101e957610206611b2d565b602435610211611d79565b610219611d94565b335f52600360205260405f2060018060a01b0383165f52602052600360405f200154156102a657801561029757335f52600360205260405f2060018060a01b0383165f52602052600260405f20015560018060a01b0316337f809c015ef1dd78491f1c4fca48656aeaddc2f80b729a763e285a73dc476444225f80a3005b631f2a200560e01b5f5260045ffd5b635d70aba760e11b5f5260045ffd5b346101e95760203660031901126101e9576102ce611b2d565b6102d6611df0565b6001600160a01b038116156102f0576102ee9061210a565b005b63e6c4247b60e01b5f5260045ffd5b346101e95760403660031901126101e9576102ee60043561031e611b43565b9061033c610337825f525f602052600160405f20015490565b611e3f565b61219b565b346101e95760603660031901126101e95761035a611b2d565b6024359060443560038110156101e957610372611d79565b61037a611d94565b335f52600360205260405f2060018060a01b0383165f52602052600360405f200154156102a657335f52600560205260405f2060018060a01b0383165f5260205260405f20908154841015610427576103e38160036103dc876103f396611b59565b5001611d61565b6040519384526020840190611b86565b6001600160a01b03169033907f41959c380867bfafa4ab90ea72b4150bc0cbabcb95adbaf640b657c2eb5d00a190604090a3005b631b742d9d60e31b5f5260045ffd5b346101e95760203660031901126101e957600435610452611d79565b61045a611d94565b801561029757600254604051636eb1769f60e11b81523360048201523060248201526001600160a01b0390911690602081604481855afa801561056b5783915f91610536575b5010610527576040516323b872dd60e01b6020820152336024820152306044820152606480820184905281526104e0916104db608483611baf565b61221b565b335f52600660205260405f206104f7828254611d1b565b90556040519081527f8fe10ae416f22f5e5220b0018a6c1d4ff534d6aa3a471f2a20cb7747fe63e5b960203392a2005b6313be252b60e01b5f5260045ffd5b9150506020813d602011610563575b8161055260209383611baf565b810103126101e957829051846104a0565b3d9150610545565b6040513d5f823e3d90fd5b346101e9575f3660031901126101e95761058e611d79565b335f9081525f5160206122b45f395f51905f52602052604090205460ff1615806108dc575b6108cd57335f52600460205260405f20604051808260208294549384815201905f5260205f20925f5b8181106108ab5750506105f192500382611baf565b8051156102a6575f5f5b825181101561070e57335f9081526003602052604090206001600160a01b036106248386611d35565b516001600160a01b03911681165f9081526020928352604080822033835260059094529020906106548487611d35565b511660018060a01b03165f5260205260405f20905f918054916002810154905b8385106106885750505050506001016105fb565b90919293956106978785611b59565b5060ff600582015460081c161580156106ff575b6106f557806106c860ff600360046106ce95015493015416611e77565b90611d1b565b42106106ec576106e083600192611d1b565b965b0193929190610674565b956001906106e2565b50956001906106e2565b5060ff600484015416156106ab565b50335f52600660205260405f20541061089c575f905b80518210156102ee57335f9081526003602052604090206001600160a01b0361074d8484611d35565b511660018060a01b03165f5260205260405f2091335f52600560205260405f2060018060a01b0361077e8385611d35565b511660018060a01b03165f5260205260405f20915f9360028101925b845486101561088c576001866107b1829888611b59565b5060ff600582015460081c1615801561087d575b610877576107e360048201916106c860ff6003855493015416611e77565b4210610877574290558554335f52600660205261080560405f20918254611d28565b905561082e828060a01b0360025416838060a01b036108248689611d35565b5116885491611eab565b818060a01b0361083e8487611d35565b511686546040519081527f97392c5d33b1386b104ad21e5f27e3aabf036b5403971bf8c046e4c94102245460203392a35b01955061079a565b5061086f565b5060ff600486015416156107c5565b9250509250600191500190610724565b631e9acf1760e31b5f5260045ffd5b84546001600160a01b03168352600194850194869450602090930192016105dc565b631a27eac360e11b5f5260045ffd5b50335f9081525f5160206122945f395f51905f52602052604090205460ff16156105b3565b346101e95760403660031901126101e95761091a611b2d565b610922611b43565b6001600160a01b039182165f90815260056020908152604080832093909416825291909152908120805490825b82811061096157602084604051908152f35b61096b8183611b59565b5060ff600582015460081c16610985575b5060010161094f565b806106c860ff6003600461099e95015493015416611e77565b8481111561097c579350600161097c565b346101e95760803660031901126101e9576109c8611b2d565b6024359060443560643560038110156101e9576109e3611d79565b6109eb611d94565b335f52600360205260405f2060018060a01b0384165f52602052600360405f200154156102a657335f52600360205260405f2060018060a01b0384165f5260205260ff600460405f20015416156102a6578184101561042757335f52600560205260405f2060018060a01b0384165f5260205260405f20915f948354955b868110610bd057506040519360e0850185811067ffffffffffffffff821117610bbc5760405286855260208501908282526040860184815260608701868152608088019142835260a08901945f865260c08a019460018652600160401b8d1015610bbc578c610add91600182018155611b59565b9a909a610ba957518a555160018a0155516002890155516003811015610b955787610b3192610b146005936003610b619c01611d61565b5160048201550192511515839060ff801983541691151516179055565b51151561ff0082549160081b169061ff001916179055604051958652602086015260408501526060840190611b86565b6001600160a01b03169033907f848dc6501f51b7436a2d9388af6525fc3f228c0afab07ad074abfb397aa6215490608090a3005b634e487b7160e01b5f52602160045260245ffd5b634e487b7160e01b5f525f60045260245ffd5b634e487b7160e01b5f52604160045260245ffd5b6002610bdc8287611b59565b500154821080610c02575b610bf357600101610a69565b63762f38cd60e01b5f5260045ffd5b506001610c0f8287611b59565b5001548311610be7565b346101e9575f3660031901126101e95760015460405160109190911c6001600160a01b03168152602090f35b346101e9575f3660031901126101e95760206040515f8152f35b346101e95760403660031901126101e957610c78611b2d565b610c80611b43565b9060018060a01b03165f52600360205260405f209060018060a01b03165f5260205260405f2060405190610cb382611b93565b80546001600160a01b03168252610d15610ccf60018301611c2d565b9283602082015260028301549283604083015260ff600460038301549283606086015201541615159182608082015260018060a01b039051169360405195869586611ccd565b0390f35b346101e95760403660031901126101e957610d32611b43565b6004355f525f60205260405f209060018060a01b03165f52602052602060ff60405f2054166040519015158152f35b346101e95760403660031901126101e957610d7a611b2d565b610d82611b43565b6001600160a01b039182165f9081526003602090815260408083209385168352929052208054909116610d15610dba60018401611c2d565b9260028101549060ff60046003830154920154169160405195869586611ccd565b346101e95760203660031901126101e9576001600160a01b03610dfc611b2d565b16805f52600460205260405f2090604051808360208295549384815201905f5260205f20925f5b818110610fea575050610e3892500383611baf565b815191610e4483611d49565b92610e526040519485611baf565b808452610e61601f1991611d49565b015f5b818110610fb45750505f5b8151811015610f13575f838152600360205260409020600191906001600160a01b03610e9b8386611d35565b5116838060a01b03165f5260205260405f2060ff600460405192610ebe84611b93565b858060a01b038154168452610ed4868201611c2d565b6020850152600281015460408501526003810154606085015201541615156080820152610f018287611d35565b52610f0c8186611d35565b5001610e6f565b836040518091602082016020835281518091526040830190602060408260051b8601019301915f905b828210610f4b57505050500390f35b919360019193955060208091603f19898203018552875190848060a01b038251168152608080610f888585015160a08786015260a0850190611bd1565b936040810151604085015260608101516060850152015115159101529601920192018594939192610f3c565b602090604051610fc381611b93565b5f81526060838201525f60408201525f60608201525f608082015282828801015201610e64565b84546001600160a01b0316835260019485019487945060209093019201610e23565b346101e95760603660031901126101e95760043567ffffffffffffffff81116101e957366023820112156101e957806004013567ffffffffffffffff8111610bbc5760405191611066601f8301601f191660200184611baf565b81835236602483830101116101e957815f92602460209301838601378301015261108e611b43565b906044359161109b611d79565b6110a3611d94565b6001600160a01b03169182156102f057801561029757335f52600360205260405f20835f52602052600360405f2001546112ff57604051906110e482611b93565b8382526020820190838252604083019081526060830190428252608084019260018452335f52600360205260405f20875f5260205260405f209460018060a01b039051166bffffffffffffffffffffffff60a01b86541617855560018501905180519067ffffffffffffffff8211610bbc576111608354611bf5565b601f81116112ba575b50602090601f831160011461124d57918060049694926111c3999896945f92611242575b50508160011b915f199060031b1c19161790555b51600285015551600384015551151591019060ff801983541691151516179055565b335f52600460205260405f208054600160401b811015610bbc576111ec91600182018155611d06565b81549060031b9084821b9160018060a01b03901b19161790557fc7b8ebf52ebf4d1384b6ec0c9b34e4f01dfe3bd1aacc6211495d69f7c66e5af3604051602081528061123d33946020830190611bd1565b0390a3005b015190508b8061118d565b90601f19831691845f52815f20925f5b8181106112a257509260019285926111c39b9a989660049a98961061128a575b505050811b0190556111a1565b01515f1960f88460031b161c191690558b808061127d565b9293602060018192878601518155019501930161125d565b835f5260205f20601f840160051c810191602085106112f5575b601f0160051c01905b8181106112ea5750611169565b5f81556001016112dd565b90915081906112d4565b63117059fd60e21b5f5260045ffd5b346101e95760203660031901126101e957611327611b2d565b61132f611d79565b611337611d94565b335f52600360205260405f2060018060a01b0382165f52602052600360405f200154156102a657335f8181526003602090815260408083206001600160a01b0395909516808452949091528120600401805460ff191690557f74b90201778ddf04c340c7cc9501b9d0e29d4891f62b0bd3768fa511228ad2e59080a3005b346101e9575f3660031901126101e957602060ff600154166040519015158152f35b346101e95760403660031901126101e9576113f0611b2d565b6113f8611b43565b6001549160ff8360081c166114eb576001600160a01b0316801580156114da575b6114cb57600280546001600160a01b0319169091179055610100600160b01b0319909116601082901b62010000600160b01b031617610100176001555f5160206122d45f395f51905f525f81815260208190527fe2cba31f4bc11a0ffdcf6285f6faa577a0ac170ef92004a78f001343d31b3b988054908290556114c193927fbd79b86ffe0ab8e8776151514217cd7cacd52c909f66475c3af44e129f0b00ff8380a4611f6b565b506102ee33611ffe565b634575c84960e11b5f5260045ffd5b506001600160a01b03821615611419565b62dc149f60e41b5f5260045ffd5b346101e95760403660031901126101e957611512611b43565b336001600160a01b0382160361152e576102ee9060043561219b565b63334bd91960e11b5f5260045ffd5b346101e95760203660031901126101e957611556611b2d565b61155e611df0565b6001600160a01b038116156102f0576102ee90611ee6565b346101e95760403660031901126101e9576102ee600435611595611b43565b906115ae610337825f525f602052600160405f20015490565b612095565b346101e95760203660031901126101e9576001600160a01b036115d4611b2d565b165f526006602052602060405f2054604051908152f35b346101e9575f3660031901126101e95760206040515f5160206122d45f395f51905f528152f35b346101e95760203660031901126101e957602061163c6004355f525f602052600160405f20015490565b604051908152f35b346101e9575f3660031901126101e95760206040517ffc7c36207174f786648d2e624616a4b40e15fd7f0268b4e36af5057f0c43c8358152f35b346101e95760203660031901126101e957611697611b2d565b6001600160a01b03165f8181526004602090815260408083209051815480825291845282842090939290918491820190845b8181106117985750506116de92500383611baf565b5f5b825181101561178d575f8481526003602052604090206001600160a01b036117088386611d35565b511660018060a01b03165f5260205260405f20608060405161172981611b93565b82546001600160a01b0316815261174260018401611c2d565b602082015260ff60046002850154948560408501526003810154606085015201541615159182910152611779575b506001016116e0565b6117869060019293611d1b565b9190611770565b602082604051908152f35b84546001600160a01b03168352600194850194879450602090930192016116c9565b346101e95760203660031901126101e9576004356117d6611d79565b6117de611d94565b801561029757335f5260066020528060405f20541061089c575f335f52600460205260405f205f908054915b8281106118bf5750505080151580611894575b6118825750335f52600660205260405f20611839828254611d28565b905560025461185490829033906001600160a01b0316611eab565b6040519081527feaff4b37086828766ad3268786972c0cd24259d4c87a80f9d3963a3c3d999b0d60203392a2005b63213bea0b60e11b5f5260045260245ffd5b506203f47f1981018181116118ab5742101561181d565b634e487b7160e01b5f52601160045260245ffd5b335f52600560205260405f206118d58284611d06565b905460039190911b1c6001600160a01b03165f908152602091909152604081208054915b82811061190b5750505060010161180a565b6119158183611b59565b5060ff600582015460081c1661192f575b506001016118f9565b806106c860ff6003600461194895015493015416611e77565b878111156119265796506001611926565b346101e9575f3660031901126101e9576002546040516001600160a01b039091168152602090f35b346101e95760603660031901126101e95761199a611b2d565b6119a2611b43565b6044359160018060a01b03165f52600560205260405f209060018060a01b03165f5260205260405f2080548210156101e95760e0916119e091611b59565b5060ff815491600181015490611a21600282015484600384015416906005600485015494015494604051978852602088015260408701526060860190611b86565b6080840152818116151560a084015260081c16151560c0820152f35b346101e95760203660031901126101e957611a56611b2d565b6040516305786ef160e21b81526001600160a01b0390911660048201819052602082602481305afa90811561056b575f91611aa5575b602092505f526006825260405f20541015604051908152f35b90506020823d602011611ad2575b81611ac060209383611baf565b810103126101e9576020915190611a8c565b3d9150611ab3565b346101e95760203660031901126101e9576004359063ffffffff60e01b82168092036101e957602091637965db0b60e01b8114908115611b1c575b5015158152f35b6301ffc9a760e01b14905083611b15565b600435906001600160a01b03821682036101e957565b602435906001600160a01b03821682036101e957565b8054821015611b72575f52600660205f20910201905f90565b634e487b7160e01b5f52603260045260245ffd5b906003821015610b955752565b60a0810190811067ffffffffffffffff821117610bbc57604052565b90601f8019910116810190811067ffffffffffffffff821117610bbc57604052565b805180835260209291819084018484015e5f828201840152601f01601f1916010190565b90600182811c92168015611c23575b6020831014611c0f57565b634e487b7160e01b5f52602260045260245ffd5b91607f1691611c04565b9060405191825f825492611c4084611bf5565b8084529360018116908115611cab5750600114611c67575b50611c6592500383611baf565b565b90505f9291925260205f20905f915b818310611c8f575050906020611c65928201015f611c58565b6020919350806001915483858901015201910190918492611c76565b905060209250611c6594915060ff191682840152151560051b8201015f611c58565b9390608093969592611cf49160018060a01b0316865260a0602087015260a0860190611bd1565b95604085015260608401521515910152565b8054821015611b72575f5260205f2001905f90565b919082018092116118ab57565b919082039182116118ab57565b8051821015611b725760209160051b010190565b67ffffffffffffffff8111610bbc5760051b60200190565b906003811015610b955760ff80198354169116179055565b60ff60015416611d8557565b63d93c066560e01b5f5260045ffd5b335f9081525f5160206122b45f395f51905f52602052604090205460ff1615611db957565b63e2517d3f60e01b5f52336004527ffc7c36207174f786648d2e624616a4b40e15fd7f0268b4e36af5057f0c43c83560245260445ffd5b335f9081527fad3228b676f7d3cd4284a5443f17f1962b36e491b30a40b2405849e597ba5fb5602052604090205460ff1615611e2857565b63e2517d3f60e01b5f52336004525f60245260445ffd5b5f8181526020818152604080832033845290915290205460ff1615611e615750565b63e2517d3f60e01b5f523360045260245260445ffd5b6003811015610b955780611e8d575062093a8090565b60018103611e9d57506212750090565b6002036104275762278d0090565b60405163a9059cbb60e01b60208201526001600160a01b039092166024830152604480830193909352918152611c65916104db606483611baf565b6001600160a01b0381165f9081525f5160206122945f395f51905f52602052604090205460ff16611f66576001600160a01b03165f8181525f5160206122945f395f51905f5260205260408120805460ff191660011790553391905f5160206122d45f395f51905f52905f5160206122745f395f51905f529080a4600190565b505f90565b6001600160a01b0381165f9081525f5160206122b45f395f51905f52602052604090205460ff16611f66576001600160a01b03165f8181525f5160206122b45f395f51905f5260205260408120805460ff191660011790553391907ffc7c36207174f786648d2e624616a4b40e15fd7f0268b4e36af5057f0c43c835905f5160206122745f395f51905f529080a4600190565b6001600160a01b0381165f9081527fad3228b676f7d3cd4284a5443f17f1962b36e491b30a40b2405849e597ba5fb5602052604090205460ff16611f66576001600160a01b03165f8181527fad3228b676f7d3cd4284a5443f17f1962b36e491b30a40b2405849e597ba5fb560205260408120805460ff191660011790553391905f5160206122745f395f51905f528180a4600190565b5f818152602081815260408083206001600160a01b038616845290915290205460ff16612104575f818152602081815260408083206001600160a01b0395909516808452949091528120805460ff19166001179055339291905f5160206122745f395f51905f529080a4600190565b50505f90565b6001600160a01b0381165f9081525f5160206122945f395f51905f52602052604090205460ff1615611f66576001600160a01b03165f8181525f5160206122945f395f51905f5260205260408120805460ff191690553391905f5160206122d45f395f51905f52907ff6391f5c32d9c69d2a47ea670b442974b53935d1edc7fd64eb21e047a839171b9080a4600190565b5f818152602081815260408083206001600160a01b038616845290915290205460ff1615612104575f818152602081815260408083206001600160a01b0395909516808452949091528120805460ff19169055339291907ff6391f5c32d9c69d2a47ea670b442974b53935d1edc7fd64eb21e047a839171b9080a4600190565b905f602091828151910182855af11561056b575f513d61226a57506001600160a01b0381163b155b61224a5750565b635274afe760e01b5f9081526001600160a01b0391909116600452602490fd5b6001141561224356fe2f8788117e7eff1d82e926ec794901d17c78024a50270940304540a733656f0de2cba31f4bc11a0ffdcf6285f6faa577a0ac170ef92004a78f001343d31b3b979750accf27f3aaa2ee9af8a0d75778e5f1905b9db8fe4b539d9e6ecc553b7f74faa623ff490ff9197b5ad863cd7f72b33e2e131994d09bd7260d7cd680faad79a26469706673582212204e4edee1e748546a90c60412e20ba730026c573081b844efde1930f168f2631764736f6c634300081c0033","linkReferences":{}},"methodIdentifiers":{"AI_AGENT_ROLE()":"25b8e7eb","DEFAULT_ADMIN_ROLE()":"a217fddf","EMPLOYER_ROLE()":"2426bb38","addAiAgent(address)":"2fce0270","addEmployee(string,address,uint256)":"6cf947cf","addFunds(uint256)":"be999705","createSchedule(address,uint256,uint256,uint8)":"a3f2996a","deactivateEmployee(address)":"6a663e18","employeeSchedules(address,address,uint256)":"0424f63c","employeesByEmployer(address,address)":"79278ca3","employerBalances(address)":"2f2909f3","employerEmployees(address,uint256)":"fa85b26a","getAllEmployeesWithDetails(address)":"769f6df2","getEmployeeDetails(address,address)":"9276ddbe","getEmployer()":"a2b299c1","getEmployerBalance(address)":"2e9db8d7","getNextPayrollDate(address,address)":"b44a2e89","getRoleAdmin(bytes32)":"248a9ca3","getTotalPayrollLiability(address)":"15e1bbc4","grantRole(bytes32,address)":"2f2ff15d","hasRole(bytes32,address)":"91d14854","hasSufficientBalanceForPayroll(address)":"040f7f94","initialize(address,address)":"485cc955","paused()":"5c975abb","processAllPayrolls()":"bb97eab7","removeAiAgent(address)":"de395c46","renounceRole(bytes32,address)":"36568abe","revokeRole(bytes32,address)":"d547741f","supportsInterface(bytes4)":"01ffc9a7","updateEmployeeSalary(address,uint256)":"ec34ece8","updateSchedule(address,uint256,uint8)":"cf2622bd","usdcToken()":"11eac855","withdrawFunds(uint256)":"155dd5ee"}}}}}