{"contracts/RikaFactory.sol":{"RikaFactory":{"abi":[{"type":"constructor","inputs":[{"name":"_implementation","type":"address","internalType":"address"},{"name":"_usdcToken","type":"address","internalType":"address"}],"stateMutability":"nonpayable"},{"type":"function","name":"DEFAULT_ADMIN_ROLE","inputs":[],"outputs":[{"name":"","type":"bytes32","internalType":"bytes32"}],"stateMutability":"view"},{"type":"function","name":"addAiAgent","inputs":[{"name":"agent","type":"address","internalType":"address"}],"outputs":[],"stateMutability":"nonpayable"},{"type":"function","name":"allPayrollContracts","inputs":[{"name":"","type":"uint256","internalType":"uint256"}],"outputs":[{"name":"","type":"address","internalType":"address"}],"stateMutability":"view"},{"type":"function","name":"createPayrollContract","inputs":[],"outputs":[{"name":"payrollContract","type":"address","internalType":"address"}],"stateMutability":"nonpayable"},{"type":"function","name":"employerToPayroll","inputs":[{"name":"","type":"address","internalType":"address"},{"name":"","type":"uint256","internalType":"uint256"}],"outputs":[{"name":"","type":"address","internalType":"address"}],"stateMutability":"view"},{"type":"function","name":"getAllPayrollContractsWithEmployers","inputs":[],"outputs":[{"name":"employers","type":"address[]","internalType":"address[]"},{"name":"contracts","type":"address[]","internalType":"address[]"}],"stateMutability":"view"},{"type":"function","name":"getEmployerPayrollDetails","inputs":[{"name":"employer","type":"address","internalType":"address"}],"outputs":[{"name":"contracts","type":"address[]","internalType":"address[]"},{"name":"details","type":"tuple[]","internalType":"struct RikaManagement.PayrollDetails[]","components":[{"name":"totalEmployees","type":"uint256","internalType":"uint256"},{"name":"totalLiability","type":"uint256","internalType":"uint256"},{"name":"currentBalance","type":"uint256","internalType":"uint256"}]}],"stateMutability":"view"},{"type":"function","name":"getRoleAdmin","inputs":[{"name":"role","type":"bytes32","internalType":"bytes32"}],"outputs":[{"name":"","type":"bytes32","internalType":"bytes32"}],"stateMutability":"view"},{"type":"function","name":"grantRole","inputs":[{"name":"role","type":"bytes32","internalType":"bytes32"},{"name":"account","type":"address","internalType":"address"}],"outputs":[],"stateMutability":"nonpayable"},{"type":"function","name":"hasRole","inputs":[{"name":"role","type":"bytes32","internalType":"bytes32"},{"name":"account","type":"address","internalType":"address"}],"outputs":[{"name":"","type":"bool","internalType":"bool"}],"stateMutability":"view"},{"type":"function","name":"implementationContract","inputs":[],"outputs":[{"name":"","type":"address","internalType":"address"}],"stateMutability":"view"},{"type":"function","name":"isPayrollContract","inputs":[{"name":"","type":"address","internalType":"address"}],"outputs":[{"name":"","type":"bool","internalType":"bool"}],"stateMutability":"view"},{"type":"function","name":"pause","inputs":[],"outputs":[],"stateMutability":"nonpayable"},{"type":"function","name":"paused","inputs":[],"outputs":[{"name":"","type":"bool","internalType":"bool"}],"stateMutability":"view"},{"type":"function","name":"removeAiAgent","inputs":[{"name":"agent","type":"address","internalType":"address"}],"outputs":[],"stateMutability":"nonpayable"},{"type":"function","name":"renounceRole","inputs":[{"name":"role","type":"bytes32","internalType":"bytes32"},{"name":"callerConfirmation","type":"address","internalType":"address"}],"outputs":[],"stateMutability":"nonpayable"},{"type":"function","name":"revokeRole","inputs":[{"name":"role","type":"bytes32","internalType":"bytes32"},{"name":"account","type":"address","internalType":"address"}],"outputs":[],"stateMutability":"nonpayable"},{"type":"function","name":"supportsInterface","inputs":[{"name":"interfaceId","type":"bytes4","internalType":"bytes4"}],"outputs":[{"name":"","type":"bool","internalType":"bool"}],"stateMutability":"view"},{"type":"function","name":"unpause","inputs":[],"outputs":[],"stateMutability":"nonpayable"},{"type":"function","name":"usdcToken","inputs":[],"outputs":[{"name":"","type":"address","internalType":"address"}],"stateMutability":"view"},{"type":"event","name":"AiAgentAdded","inputs":[{"name":"agent","type":"address","indexed":true,"internalType":"address"}],"anonymous":false},{"type":"event","name":"AiAgentRemoved","inputs":[{"name":"agent","type":"address","indexed":true,"internalType":"address"}],"anonymous":false},{"type":"event","name":"Paused","inputs":[{"name":"account","type":"address","indexed":false,"internalType":"address"}],"anonymous":false},{"type":"event","name":"PayrollContractCreated","inputs":[{"name":"employer","type":"address","indexed":true,"internalType":"address"},{"name":"payrollContract","type":"address","indexed":true,"internalType":"address"}],"anonymous":false},{"type":"event","name":"PayrollContractUpdated","inputs":[{"name":"employer","type":"address","indexed":true,"internalType":"address"},{"name":"payrollContract","type":"address","indexed":true,"internalType":"address"}],"anonymous":false},{"type":"event","name":"RoleAdminChanged","inputs":[{"name":"role","type":"bytes32","indexed":true,"internalType":"bytes32"},{"name":"previousAdminRole","type":"bytes32","indexed":true,"internalType":"bytes32"},{"name":"newAdminRole","type":"bytes32","indexed":true,"internalType":"bytes32"}],"anonymous":false},{"type":"event","name":"RoleGranted","inputs":[{"name":"role","type":"bytes32","indexed":true,"internalType":"bytes32"},{"name":"account","type":"address","indexed":true,"internalType":"address"},{"name":"sender","type":"address","indexed":true,"internalType":"address"}],"anonymous":false},{"type":"event","name":"RoleRevoked","inputs":[{"name":"role","type":"bytes32","indexed":true,"internalType":"bytes32"},{"name":"account","type":"address","indexed":true,"internalType":"address"},{"name":"sender","type":"address","indexed":true,"internalType":"address"}],"anonymous":false},{"type":"event","name":"Unpaused","inputs":[{"name":"account","type":"address","indexed":false,"internalType":"address"}],"anonymous":false},{"type":"error","name":"AccessControlBadConfirmation","inputs":[]},{"type":"error","name":"AccessControlUnauthorizedAccount","inputs":[{"name":"account","type":"address","internalType":"address"},{"name":"neededRole","type":"bytes32","internalType":"bytes32"}]},{"type":"error","name":"EnforcedPause","inputs":[]},{"type":"error","name":"ExpectedPause","inputs":[]},{"type":"error","name":"FailedDeployment","inputs":[]},{"type":"error","name":"InsufficientBalance","inputs":[{"name":"balance","type":"uint256","internalType":"uint256"},{"name":"needed","type":"uint256","internalType":"uint256"}]},{"type":"error","name":"MaxPayrollContractsAllowed","inputs":[]},{"type":"error","name":"PayrollContractNotFound","inputs":[]},{"type":"error","name":"UnauthorizedAccess","inputs":[]},{"type":"error","name":"ZeroAddress","inputs":[]}],"userdoc":{},"devdoc":{},"evm":{"bytecode":{"object":"60c0346100d257601f6112a538819003918201601f19168301916001600160401b038311848410176100d65780849260409485528339810103126100d257610052602061004b836100ea565b92016100ea565b6001805460ff19169055906001600160a01b0381161580156100c1575b6100b25760805260a052610082336100fe565b506040516110fd9081610188823960805181818161029b01526105b1015260a0518181816103a801526109190152f35b63d92e233d60e01b5f5260045ffd5b506001600160a01b0382161561006f565b5f80fd5b634e487b7160e01b5f52604160045260245ffd5b51906001600160a01b03821682036100d257565b6001600160a01b0381165f9081525f5160206112855f395f51905f52602052604090205460ff16610182576001600160a01b03165f8181525f5160206112855f395f51905f5260205260408120805460ff191660011790553391907f2f8788117e7eff1d82e926ec794901d17c78024a50270940304540a733656f0d8180a4600190565b505f9056fe60806040526004361015610011575f80fd5b5f3560e01c806301b79f73146109e757806301ffc9a714610991578063053d6e611461094857806311eac85514610904578063248a9ca3146108d25780632f2ff15d146108955780632fce0270146107cb57806332082a651461078957806336568abe146107455780633f4ba83a146106df5780635c975abb146106bd578063754e884e146106805780638456cb591461062857806391d14854146105e057806399e7d0561461059c578063a217fddf14610582578063d547741f1461053e578063de395c4614610465578063e751b5b41461025c5763f5886b3f146100f5575f80fd5b346101f5575f3660031901126101f557604051600354808252816020810160035f5260205f20925f5b81811061023a57505061013392500382610ebb565b805161013e81610edd565b9061014c6040519283610ebb565b80825261015b601f1991610edd565b013660208301375f5b825181101561020c5760049060206001600160a01b036101848387610ef5565b51166040519384809263a2b299c160e01b82525afa8015610201575f906101c4575b600192506101b48285610ef5565b90838060a01b0316905201610164565b506020823d82116101f9575b816101dd60209383610ebb565b810103126101f5576101f0600192610f09565b6101a6565b5f80fd5b3d91506101d0565b6040513d5f823e3d90fd5b5061023661022892604051938493604085526040850190610e22565b908382036020850152610e22565b0390f35b84546001600160a01b031683526001948501948694506020909301920161011e565b346101f5575f3660031901126101f5576102746110ac565b335f526002602052600360405f20541015610456576e5af43d82803e903d91602b57fd5bf37f0000000000000000000000000000000000000000000000000000000000000000763d602d80600a3d3981f3363d3d373d3d3d363d7300000062ffffff8260881c16175f5260781b1760205260018060a01b03603760095ff016801561044757335f52600260205260405f208054600160401b8110156104335761032291600182018155610e8a565b8154600391821b84811b6001600160a01b0390911b199091161790915554600160401b8110156104335780600161035e92016003556003610e8a565b81546001600160a01b0360039290921b91821b19169083901b1790555f818152600460205260409020805460ff19166001179055803b156101f55760405163485cc95560e01b81527f00000000000000000000000000000000000000000000000000000000000000006001600160a01b03166004820152336024820152905f8260448183855af191821561020157602092610423575b506040519080337fe6b90854f2f854b3d6bd3a78791efaf8f5c4b16e72adee672b2495d5171ea97f5f80a38152f35b5f61042d91610ebb565b826103f4565b634e487b7160e01b5f52604160045260245ffd5b63b06ebf3d60e01b5f5260045ffd5b63734f5a2160e11b5f5260045ffd5b346101f55760203660031901126101f55761047e610df6565b610486610f1d565b6001600160a01b0316801561052f575f5b600354811015610508576104aa81610e5e565b905460039190911b1c6001600160a01b031690813b156101f5575f8092602460405180958193636f1cae2360e11b83528860048401525af1918215610201576001926104f8575b5001610497565b5f61050291610ebb565b836104f1565b507f182e517245f871f238268856ffea7ad3db8a64b3dc8e1beaa39453935835c82e5f80a2005b63d92e233d60e01b5f5260045ffd5b346101f55760403660031901126101f55761058060043561055d610e0c565b9061057b610576825f525f602052600160405f20015490565b610f6c565b61102c565b005b346101f5575f3660031901126101f55760206040515f8152f35b346101f5575f3660031901126101f5576040517f00000000000000000000000000000000000000000000000000000000000000006001600160a01b03168152602090f35b346101f55760403660031901126101f5576105f9610e0c565b6004355f525f60205260405f209060018060a01b03165f52602052602060ff60405f2054166040519015158152f35b346101f5575f3660031901126101f557610640610f1d565b6106486110ac565b600160ff19815416176001557f62e78cea01bee320cd4e420270b5ea74000d11b0c9f74754ebdbfc544b05a2586020604051338152a1005b346101f55760203660031901126101f5576001600160a01b036106a1610df6565b165f526004602052602060ff60405f2054166040519015158152f35b346101f5575f3660031901126101f557602060ff600154166040519015158152f35b346101f5575f3660031901126101f5576106f7610f1d565b60015460ff8116156107365760ff19166001557f5db9ee0a495bf2e6ff9c91a7834c1ba4fdd244a5e8aa4e537bd38aeae4b073aa6020604051338152a1005b638dfc202b60e01b5f5260045ffd5b346101f55760403660031901126101f55761075e610e0c565b336001600160a01b0382160361077a576105809060043561102c565b63334bd91960e11b5f5260045ffd5b346101f55760203660031901126101f5576004356003548110156101f5576107b2602091610e5e565b905460405160039290921b1c6001600160a01b03168152f35b346101f55760203660031901126101f5576107e4610df6565b6107ec610f1d565b6001600160a01b0316801561052f575f5b60035481101561086e5761081081610e5e565b905460039190911b1c6001600160a01b031690813b156101f5575f80926024604051809581936302fce02760e41b83528860048401525af19182156102015760019261085e575b50016107fd565b5f61086891610ebb565b83610857565b507fdb18fefe337eecfffea00e368c7849f9733bd2c2a7b2eefe36f0562d0733cc375f80a2005b346101f55760403660031901126101f5576105806004356108b4610e0c565b906108cd610576825f525f602052600160405f20015490565b610fa4565b346101f55760203660031901126101f55760206108fc6004355f525f602052600160405f20015490565b604051908152f35b346101f5575f3660031901126101f5576040517f00000000000000000000000000000000000000000000000000000000000000006001600160a01b03168152602090f35b346101f55760403660031901126101f557610961610df6565b6001600160a01b03165f908152600260205260409020805460243591908210156101f5576020916107b291610e8a565b346101f55760203660031901126101f55760043563ffffffff60e01b81168091036101f557602090637965db0b60e01b81149081156109d6575b506040519015158152f35b6301ffc9a760e01b149050826109cb565b346101f55760203660031901126101f5576001600160a01b03610a08610df6565b16805f52600260205260405f20604051908181549182825260208201905f5260205f20925f5b818110610dd4575050610a4392500382610ebb565b8051610a4e81610edd565b90610a5c6040519283610ebb565b808252610a6b601f1991610edd565b015f5b818110610dab5750505f5b8251811015610d3c576001600160a01b03610a948285610ef5565b511690604051633b4fb6f960e11b81528560048201525f81602481865afa908115610201575f91610bbd575b50516040516305786ef160e21b81526004810187905292602084602481845afa938415610201575f94610b89575b5092602060249460405195868092632e9db8d760e01b82528b60048301525afa908115610201575f91610b55575b6001945060405192610b2d84610e9f565b835260208301526040820152610b438285610ef5565b52610b4e8184610ef5565b5001610a79565b90506020843d8211610b81575b81610b6f60209383610ebb565b810103126101f5576001935190610b1c565b3d9150610b62565b93506020843d8211610bb5575b81610ba360209383610ebb565b810103126101f5579251926020610aee565b3d9150610b96565b90503d805f833e610bce8183610ebb565b8101906020818303126101f55780519067ffffffffffffffff82116101f557019080601f830112156101f557815191610c0683610edd565b92610c146040519485610ebb565b80845260208085019160051b830101918383116101f55760208101915b838310610c4357505050505086610ac0565b825167ffffffffffffffff81116101f55782019060a0828703601f1901126101f5576040519160a0830183811067ffffffffffffffff82111761043357604052610c8f60208201610f09565b8352604081015167ffffffffffffffff81116101f5576020908201019087601f830112156101f557815167ffffffffffffffff81116104335760405190610ce0601f8201601f191660200183610ebb565b80825289602082860101116101f5576020815f928260a097018386015e830101526020850152606081015160408501526080810151606085015201519081151582036101f5578260209392608085940152815201920191610c31565b5090610d5691604051928392604084526040840190610e22565b8281036020840152602080835192838152019201905f5b818110610d7b575050500390f35b91935091602060606001926040875180518352848101518584015201516040820152019401910191849392610d6d565b602090604051610dba81610e9f565b5f81525f838201525f604082015282828601015201610a6e565b84546001600160a01b0316835260019485019486945060209093019201610a2e565b600435906001600160a01b03821682036101f557565b602435906001600160a01b03821682036101f557565b90602080835192838152019201905f5b818110610e3f5750505090565b82516001600160a01b0316845260209384019390920191600101610e32565b600354811015610e765760035f5260205f2001905f90565b634e487b7160e01b5f52603260045260245ffd5b8054821015610e76575f5260205f2001905f90565b6060810190811067ffffffffffffffff82111761043357604052565b90601f8019910116810190811067ffffffffffffffff82111761043357604052565b67ffffffffffffffff81116104335760051b60200190565b8051821015610e765760209160051b010190565b51906001600160a01b03821682036101f557565b335f9081527fad3228b676f7d3cd4284a5443f17f1962b36e491b30a40b2405849e597ba5fb5602052604090205460ff1615610f5557565b63e2517d3f60e01b5f52336004525f60245260445ffd5b5f8181526020818152604080832033845290915290205460ff1615610f8e5750565b63e2517d3f60e01b5f523360045260245260445ffd5b5f818152602081815260408083206001600160a01b038616845290915290205460ff16611026575f818152602081815260408083206001600160a01b0395909516808452949091528120805460ff19166001179055339291907f2f8788117e7eff1d82e926ec794901d17c78024a50270940304540a733656f0d9080a4600190565b50505f90565b5f818152602081815260408083206001600160a01b038616845290915290205460ff1615611026575f818152602081815260408083206001600160a01b0395909516808452949091528120805460ff19169055339291907ff6391f5c32d9c69d2a47ea670b442974b53935d1edc7fd64eb21e047a839171b9080a4600190565b60ff600154166110b857565b63d93c066560e01b5f5260045ffdfea2646970667358221220faa91679a3d72e1606597c60d20a4e21de57168dacd036e1698af09d6c8a58d464736f6c634300081c0033ad3228b676f7d3cd4284a5443f17f1962b36e491b30a40b2405849e597ba5fb5","linkReferences":{}},"methodIdentifiers":{"DEFAULT_ADMIN_ROLE()":"a217fddf","addAiAgent(address)":"2fce0270","allPayrollContracts(uint256)":"32082a65","createPayrollContract()":"e751b5b4","employerToPayroll(address,uint256)":"053d6e61","getAllPayrollContractsWithEmployers()":"f5886b3f","getEmployerPayrollDetails(address)":"01b79f73","getRoleAdmin(bytes32)":"248a9ca3","grantRole(bytes32,address)":"2f2ff15d","hasRole(bytes32,address)":"91d14854","implementationContract()":"99e7d056","isPayrollContract(address)":"754e884e","pause()":"8456cb59","paused()":"5c975abb","removeAiAgent(address)":"de395c46","renounceRole(bytes32,address)":"36568abe","revokeRole(bytes32,address)":"d547741f","supportsInterface(bytes4)":"01ffc9a7","unpause()":"3f4ba83a","usdcToken()":"11eac855"}}}}}