{"abi":[{"type":"constructor","inputs":[{"name":"_implementation","type":"address","internalType":"address"},{"name":"_usdcToken","type":"address","internalType":"address"}],"stateMutability":"nonpayable"},{"type":"function","name":"DEFAULT_ADMIN_ROLE","inputs":[],"outputs":[{"name":"","type":"bytes32","internalType":"bytes32"}],"stateMutability":"view"},{"type":"function","name":"addAiAgent","inputs":[{"name":"agent","type":"address","internalType":"address"}],"outputs":[],"stateMutability":"nonpayable"},{"type":"function","name":"allPayrollContracts","inputs":[{"name":"","type":"uint256","internalType":"uint256"}],"outputs":[{"name":"","type":"address","internalType":"address"}],"stateMutability":"view"},{"type":"function","name":"createPayrollContract","inputs":[],"outputs":[{"name":"payrollContract","type":"address","internalType":"address"}],"stateMutability":"nonpayable"},{"type":"function","name":"getAllPayrollContracts","inputs":[],"outputs":[{"name":"","type":"address[]","internalType":"address[]"}],"stateMutability":"view"},{"type":"function","name":"getAllPayrollContractsWithEmployers","inputs":[],"outputs":[{"name":"employers","type":"address[]","internalType":"address[]"},{"name":"contracts","type":"address[]","internalType":"address[]"}],"stateMutability":"view"},{"type":"function","name":"getEmployeeDetails","inputs":[{"name":"_employer","type":"address","internalType":"address"},{"name":"_employeeAddress","type":"address","internalType":"address"}],"outputs":[{"name":"employeeAddress","type":"address","internalType":"address"},{"name":"name","type":"string","internalType":"string"},{"name":"salary","type":"uint256","internalType":"uint256"},{"name":"joiningDate","type":"uint256","internalType":"uint256"},{"name":"isActive","type":"bool","internalType":"bool"}],"stateMutability":"view"},{"type":"function","name":"getEmployerPayrollDetails","inputs":[{"name":"employer","type":"address","internalType":"address"}],"outputs":[{"name":"contracts","type":"address[]","internalType":"address[]"},{"name":"details","type":"tuple[]","internalType":"struct RikaManagement.PayrollDetails[]","components":[{"name":"totalEmployees","type":"uint256","internalType":"uint256"},{"name":"totalLiability","type":"uint256","internalType":"uint256"},{"name":"currentBalance","type":"uint256","internalType":"uint256"}]}],"stateMutability":"view"},{"type":"function","name":"getEmployerPayrolls","inputs":[{"name":"employer","type":"address","internalType":"address"}],"outputs":[{"name":"","type":"address[]","internalType":"address[]"}],"stateMutability":"view"},{"type":"function","name":"getRoleAdmin","inputs":[{"name":"role","type":"bytes32","internalType":"bytes32"}],"outputs":[{"name":"","type":"bytes32","internalType":"bytes32"}],"stateMutability":"view"},{"type":"function","name":"getTotalEmployees","inputs":[{"name":"_employer","type":"address","internalType":"address"}],"outputs":[{"name":"total","type":"uint256","internalType":"uint256"}],"stateMutability":"view"},{"type":"function","name":"grantRole","inputs":[{"name":"role","type":"bytes32","internalType":"bytes32"},{"name":"account","type":"address","internalType":"address"}],"outputs":[],"stateMutability":"nonpayable"},{"type":"function","name":"hasRole","inputs":[{"name":"role","type":"bytes32","internalType":"bytes32"},{"name":"account","type":"address","internalType":"address"}],"outputs":[{"name":"","type":"bool","internalType":"bool"}],"stateMutability":"view"},{"type":"function","name":"implementationContract","inputs":[],"outputs":[{"name":"","type":"address","internalType":"address"}],"stateMutability":"view"},{"type":"function","name":"isValidPayrollContract","inputs":[{"name":"contractAddress","type":"address","internalType":"address"}],"outputs":[{"name":"","type":"bool","internalType":"bool"}],"stateMutability":"view"},{"type":"function","name":"pause","inputs":[],"outputs":[],"stateMutability":"nonpayable"},{"type":"function","name":"paused","inputs":[],"outputs":[{"name":"","type":"bool","internalType":"bool"}],"stateMutability":"view"},{"type":"function","name":"removeAiAgent","inputs":[{"name":"agent","type":"address","internalType":"address"}],"outputs":[],"stateMutability":"nonpayable"},{"type":"function","name":"renounceRole","inputs":[{"name":"role","type":"bytes32","internalType":"bytes32"},{"name":"callerConfirmation","type":"address","internalType":"address"}],"outputs":[],"stateMutability":"nonpayable"},{"type":"function","name":"revokeRole","inputs":[{"name":"role","type":"bytes32","internalType":"bytes32"},{"name":"account","type":"address","internalType":"address"}],"outputs":[],"stateMutability":"nonpayable"},{"type":"function","name":"supportsInterface","inputs":[{"name":"interfaceId","type":"bytes4","internalType":"bytes4"}],"outputs":[{"name":"","type":"bool","internalType":"bool"}],"stateMutability":"view"},{"type":"function","name":"unpause","inputs":[],"outputs":[],"stateMutability":"nonpayable"},{"type":"function","name":"usdcToken","inputs":[],"outputs":[{"name":"","type":"address","internalType":"address"}],"stateMutability":"view"},{"type":"event","name":"AiAgentAdded","inputs":[{"name":"agent","type":"address","indexed":true,"internalType":"address"}],"anonymous":false},{"type":"event","name":"AiAgentRemoved","inputs":[{"name":"agent","type":"address","indexed":true,"internalType":"address"}],"anonymous":false},{"type":"event","name":"Paused","inputs":[{"name":"account","type":"address","indexed":false,"internalType":"address"}],"anonymous":false},{"type":"event","name":"PayrollContractCreated","inputs":[{"name":"employer","type":"address","indexed":true,"internalType":"address"},{"name":"payrollContract","type":"address","indexed":true,"internalType":"address"}],"anonymous":false},{"type":"event","name":"PayrollContractUpdated","inputs":[{"name":"employer","type":"address","indexed":true,"internalType":"address"},{"name":"payrollContract","type":"address","indexed":true,"internalType":"address"}],"anonymous":false},{"type":"event","name":"RoleAdminChanged","inputs":[{"name":"role","type":"bytes32","indexed":true,"internalType":"bytes32"},{"name":"previousAdminRole","type":"bytes32","indexed":true,"internalType":"bytes32"},{"name":"newAdminRole","type":"bytes32","indexed":true,"internalType":"bytes32"}],"anonymous":false},{"type":"event","name":"RoleGranted","inputs":[{"name":"role","type":"bytes32","indexed":true,"internalType":"bytes32"},{"name":"account","type":"address","indexed":true,"internalType":"address"},{"name":"sender","type":"address","indexed":true,"internalType":"address"}],"anonymous":false},{"type":"event","name":"RoleRevoked","inputs":[{"name":"role","type":"bytes32","indexed":true,"internalType":"bytes32"},{"name":"account","type":"address","indexed":true,"internalType":"address"},{"name":"sender","type":"address","indexed":true,"internalType":"address"}],"anonymous":false},{"type":"event","name":"Unpaused","inputs":[{"name":"account","type":"address","indexed":false,"internalType":"address"}],"anonymous":false},{"type":"error","name":"AccessControlBadConfirmation","inputs":[]},{"type":"error","name":"AccessControlUnauthorizedAccount","inputs":[{"name":"account","type":"address","internalType":"address"},{"name":"neededRole","type":"bytes32","internalType":"bytes32"}]},{"type":"error","name":"EnforcedPause","inputs":[]},{"type":"error","name":"ExpectedPause","inputs":[]},{"type":"error","name":"FailedDeployment","inputs":[]},{"type":"error","name":"InsufficientBalance","inputs":[{"name":"balance","type":"uint256","internalType":"uint256"},{"name":"needed","type":"uint256","internalType":"uint256"}]},{"type":"error","name":"MaxPayrollContractsAllowed","inputs":[]},{"type":"error","name":"PayrollContractNotFound","inputs":[]},{"type":"error","name":"UnauthorizedAccess","inputs":[]},{"type":"error","name":"ZeroAddress","inputs":[]}],"bytecode":{"object":"0x60c0346100d257601f6115a538819003918201601f19168301916001600160401b038311848410176100d65780849260409485528339810103126100d257610052602061004b836100ea565b92016100ea565b6001805460ff19169055906001600160a01b0381161580156100c1575b6100b25760805260a052610082336100fe565b506040516113fd9081610188823960805181818161027401526105b9015260a0518181816103810152610ab40152f35b63d92e233d60e01b5f5260045ffd5b506001600160a01b0382161561006f565b5f80fd5b634e487b7160e01b5f52604160045260245ffd5b51906001600160a01b03821682036100d257565b6001600160a01b0381165f9081525f5160206115855f395f51905f52602052604090205460ff16610182576001600160a01b03165f8181525f5160206115855f395f51905f5260205260408120805460ff191660011790553391907f2f8788117e7eff1d82e926ec794901d17c78024a50270940304540a733656f0d8180a4600190565b505f9056fe60806040526004361015610011575f80fd5b5f3560e01c806301b79f7314610b3957806301ffc9a714610ae357806311eac85514610a9f578063248a9ca314610a6d5780632f2ff15d14610a305780632fce02701461096657806332082a651461092457806336568abe146108e05780633f4ba83a1461087a5780634b9136f51461079d5780635c975abb1461077b57806371a4a62e1461073e5780638456cb59146106e657806388383f61146106ae57806391d14854146106665780639276ddbe146105e857806399e7d056146105a4578063a1b7faf714610575578063a217fddf1461055b578063d547741f14610517578063de395c461461043e578063e751b5b4146102355763f5886b3f14610116575f80fd5b346101f0575f3660031901126101f05761012e610e82565b805161013981610f26565b906101476040519283610e60565b808252610156601f1991610f26565b013660208301375f5b82518110156102075760049060206001600160a01b0361017f8387610f3e565b51166040519384809263a2b299c160e01b82525afa80156101fc575f906101bf575b600192506101af8285610f3e565b90838060a01b031690520161015f565b506020823d82116101f4575b816101d860209383610e60565b810103126101f0576101eb600192610f52565b6101a1565b5f80fd5b3d91506101cb565b6040513d5f823e3d90fd5b5061023161022392604051938493604085526040850190610dc7565b908382036020850152610dc7565b0390f35b346101f0575f3660031901126101f05761024d6113ac565b335f526002602052600360405f2054101561042f576e5af43d82803e903d91602b57fd5bf37f0000000000000000000000000000000000000000000000000000000000000000763d602d80600a3d3981f3363d3d373d3d3d363d7300000062ffffff8260881c16175f5260781b1760205260018060a01b03603760095ff016801561042057335f52600260205260405f208054600160401b81101561040c576102fb91600182018155610e2f565b8154600391821b84811b6001600160a01b0390911b199091161790915554600160401b81101561040c5780600161033792016003556003610e2f565b81546001600160a01b0360039290921b91821b19169083901b1790555f818152600460205260409020805460ff19166001179055803b156101f05760405163485cc95560e01b81527f00000000000000000000000000000000000000000000000000000000000000006001600160a01b03166004820152336024820152905f8260448183855af19182156101fc576020926103fc575b506040519080337fe6b90854f2f854b3d6bd3a78791efaf8f5c4b16e72adee672b2495d5171ea97f5f80a38152f35b5f61040691610e60565b826103cd565b634e487b7160e01b5f52604160045260245ffd5b63b06ebf3d60e01b5f5260045ffd5b63734f5a2160e11b5f5260045ffd5b346101f05760203660031901126101f057610457610d9b565b61045f61121d565b6001600160a01b03168015610508575f5b6003548110156104e15761048381610e03565b905460039190911b1c6001600160a01b031690813b156101f0575f8092602460405180958193636f1cae2360e11b83528860048401525af19182156101fc576001926104d1575b5001610470565b5f6104db91610e60565b836104ca565b507f182e517245f871f238268856ffea7ad3db8a64b3dc8e1beaa39453935835c82e5f80a2005b63d92e233d60e01b5f5260045ffd5b346101f05760403660031901126101f057610559600435610536610db1565b9061055461054f825f525f602052600160405f20015490565b61126c565b61132c565b005b346101f0575f3660031901126101f05760206040515f8152f35b346101f0575f3660031901126101f057610231610590610e82565b604051918291602083526020830190610dc7565b346101f0575f3660031901126101f0576040517f00000000000000000000000000000000000000000000000000000000000000006001600160a01b03168152602090f35b346101f05760403660031901126101f057602060c0610616610608610d9b565b610610610db1565b906110e1565b9160409693965196879560018060a01b0316865260a08587015280519485918260a0890152018787015e5f8585018701526040850152606084015215156080830152601f01601f19168101030190f35b346101f05760403660031901126101f05761067f610db1565b6004355f525f60205260405f209060018060a01b03165f52602052602060ff60405f2054166040519015158152f35b346101f05760203660031901126101f0576001600160a01b036106cf610d9b565b165f52600260205261023161059060405f20610ed5565b346101f0575f3660031901126101f0576106fe61121d565b6107066113ac565b600160ff19815416176001557f62e78cea01bee320cd4e420270b5ea74000d11b0c9f74754ebdbfc544b05a2586020604051338152a1005b346101f05760203660031901126101f0576001600160a01b0361075f610d9b565b165f526004602052602060ff60405f2054166040519015158152f35b346101f0575f3660031901126101f057602060ff600154166040519015158152f35b346101f05760203660031901126101f0576107b6610d9b565b6001600160a01b03165f8181526002602052604081209091906107d890610ed5565b905f925b825184101561086f5760245f6001600160a01b036107fa8787610f3e565b511660405192838092633b4fb6f960e11b82528760048301525afa9081156101fc575f9161084d575b50518101809111610839576001909301926107dc565b634e487b7160e01b5f52601160045260245ffd5b61086991503d805f833e6108618183610e60565b810190610fc9565b85610823565b602090604051908152f35b346101f0575f3660031901126101f05761089261121d565b60015460ff8116156108d15760ff19166001557f5db9ee0a495bf2e6ff9c91a7834c1ba4fdd244a5e8aa4e537bd38aeae4b073aa6020604051338152a1005b638dfc202b60e01b5f5260045ffd5b346101f05760403660031901126101f0576108f9610db1565b336001600160a01b03821603610915576105599060043561132c565b63334bd91960e11b5f5260045ffd5b346101f05760203660031901126101f0576004356003548110156101f05761094d602091610e03565b905460405160039290921b1c6001600160a01b03168152f35b346101f05760203660031901126101f05761097f610d9b565b61098761121d565b6001600160a01b03168015610508575f5b600354811015610a09576109ab81610e03565b905460039190911b1c6001600160a01b031690813b156101f0575f80926024604051809581936302fce02760e41b83528860048401525af19182156101fc576001926109f9575b5001610998565b5f610a0391610e60565b836109f2565b507fdb18fefe337eecfffea00e368c7849f9733bd2c2a7b2eefe36f0562d0733cc375f80a2005b346101f05760403660031901126101f057610559600435610a4f610db1565b90610a6861054f825f525f602052600160405f20015490565b6112a4565b346101f05760203660031901126101f0576020610a976004355f525f602052600160405f20015490565b604051908152f35b346101f0575f3660031901126101f0576040517f00000000000000000000000000000000000000000000000000000000000000006001600160a01b03168152602090f35b346101f05760203660031901126101f05760043563ffffffff60e01b81168091036101f057602090637965db0b60e01b8114908115610b28575b506040519015158152f35b6301ffc9a760e01b14905082610b1d565b346101f05760203660031901126101f0576001600160a01b03610b5a610d9b565b16805f526002602052610b6f60405f20610ed5565b8051610b7a81610f26565b90610b886040519283610e60565b808252610b97601f1991610f26565b015f5b818110610d725750505f5b8251811015610d03576001600160a01b03610bc08285610f3e565b511690604051633b4fb6f960e11b81528560048201525f81602481865afa9081156101fc575f91610ce9575b50516040516305786ef160e21b81526004810187905292602084602481845afa9384156101fc575f94610cb5575b5092602060249460405195868092632e9db8d760e01b82528b60048301525afa9081156101fc575f91610c81575b6001945060405192610c5984610e44565b835260208301526040820152610c6f8285610f3e565b52610c7a8184610f3e565b5001610ba5565b90506020843d8211610cad575b81610c9b60209383610e60565b810103126101f0576001935190610c48565b3d9150610c8e565b93506020843d8211610ce1575b81610ccf60209383610e60565b810103126101f0579251926020610c1a565b3d9150610cc2565b610cfd91503d805f833e6108618183610e60565b86610bec565b5090610d1d91604051928392604084526040840190610dc7565b8281036020840152602080835192838152019201905f5b818110610d42575050500390f35b91935091602060606001926040875180518352848101518584015201516040820152019401910191849392610d34565b602090604051610d8181610e44565b5f81525f838201525f604082015282828601015201610b9a565b600435906001600160a01b03821682036101f057565b602435906001600160a01b03821682036101f057565b90602080835192838152019201905f5b818110610de45750505090565b82516001600160a01b0316845260209384019390920191600101610dd7565b600354811015610e1b5760035f5260205f2001905f90565b634e487b7160e01b5f52603260045260245ffd5b8054821015610e1b575f5260205f2001905f90565b6060810190811067ffffffffffffffff82111761040c57604052565b90601f8019910116810190811067ffffffffffffffff82111761040c57604052565b60405190600354808352826020810160035f5260205f20925f5b818110610eb3575050610eb192500383610e60565b565b84546001600160a01b0316835260019485019487945060209093019201610e9c565b90604051918281549182825260208201905f5260205f20925f5b818110610f04575050610eb192500383610e60565b84546001600160a01b0316835260019485019487945060209093019201610eef565b67ffffffffffffffff811161040c5760051b60200190565b8051821015610e1b5760209160051b010190565b51906001600160a01b03821682036101f057565b81601f820112156101f05780519067ffffffffffffffff821161040c5760405192610f9b601f8401601f191660200185610e60565b828452602083830101116101f057815f9260208093018386015e8301015290565b519081151582036101f057565b6020818303126101f05780519067ffffffffffffffff82116101f057019080601f830112156101f057815191610ffe83610f26565b9261100c6040519485610e60565b80845260208085019160051b830101918383116101f05760208101915b83831061103857505050505090565b825167ffffffffffffffff81116101f05782019060a0828703601f1901126101f0576040519060a0820182811067ffffffffffffffff82111761040c5760405261108460208401610f52565b825260408301519167ffffffffffffffff83116101f0576110d160a0856110b38b602080999881990101610f66565b86850152606081015160408501526080810151606085015201610fbc565b6080820152815201920191611029565b6001600160a01b0381165f90815260026020526040902061110190610ed5565b5f5b81518110156111fd576001600160a01b0361111e8284610f3e565b5160405163493b6edf60e11b81526001600160a01b03868116600483015287166024820152915f9183916044918391165afa9081156101fc575f905f925f925f925f9261118f575b506001600160a01b038116611182575050505050600101611103565b9893975091955093509150565b9450505050503d805f833e6111a48183610e60565b81019060a0818303126101f0576111ba81610f52565b9160208201519067ffffffffffffffff82116101f0576111db918301610f66565b916040820151926111f3608060608501519401610fbc565b909392915f611166565b505050505f90604051611211602082610e60565b5f8152905f905f905f90565b335f9081527fad3228b676f7d3cd4284a5443f17f1962b36e491b30a40b2405849e597ba5fb5602052604090205460ff161561125557565b63e2517d3f60e01b5f52336004525f60245260445ffd5b5f8181526020818152604080832033845290915290205460ff161561128e5750565b63e2517d3f60e01b5f523360045260245260445ffd5b5f818152602081815260408083206001600160a01b038616845290915290205460ff16611326575f818152602081815260408083206001600160a01b0395909516808452949091528120805460ff19166001179055339291907f2f8788117e7eff1d82e926ec794901d17c78024a50270940304540a733656f0d9080a4600190565b50505f90565b5f818152602081815260408083206001600160a01b038616845290915290205460ff1615611326575f818152602081815260408083206001600160a01b0395909516808452949091528120805460ff19169055339291907ff6391f5c32d9c69d2a47ea670b442974b53935d1edc7fd64eb21e047a839171b9080a4600190565b60ff600154166113b857565b63d93c066560e01b5f5260045ffdfea2646970667358221220f449001c39d8293128d457eb8ebaf56b3b302c31722cd991df0c91962ce24d2e64736f6c634300081c0033ad3228b676f7d3cd4284a5443f17f1962b36e491b30a40b2405849e597ba5fb5","linkReferences":{}},"methodIdentifiers":{"DEFAULT_ADMIN_ROLE()":"a217fddf","addAiAgent(address)":"2fce0270","allPayrollContracts(uint256)":"32082a65","createPayrollContract()":"e751b5b4","getAllPayrollContracts()":"a1b7faf7","getAllPayrollContractsWithEmployers()":"f5886b3f","getEmployeeDetails(address,address)":"9276ddbe","getEmployerPayrollDetails(address)":"01b79f73","getEmployerPayrolls(address)":"88383f61","getRoleAdmin(bytes32)":"248a9ca3","getTotalEmployees(address)":"4b9136f5","grantRole(bytes32,address)":"2f2ff15d","hasRole(bytes32,address)":"91d14854","implementationContract()":"99e7d056","isValidPayrollContract(address)":"71a4a62e","pause()":"8456cb59","paused()":"5c975abb","removeAiAgent(address)":"de395c46","renounceRole(bytes32,address)":"36568abe","revokeRole(bytes32,address)":"d547741f","supportsInterface(bytes4)":"01ffc9a7","unpause()":"3f4ba83a","usdcToken()":"11eac855"},"id":2}