{"abi":[{"type":"function","name":"AI_AGENT_ROLE","inputs":[],"outputs":[{"name":"","type":"bytes32","internalType":"bytes32"}],"stateMutability":"view"},{"type":"function","name":"DEFAULT_ADMIN_ROLE","inputs":[],"outputs":[{"name":"","type":"bytes32","internalType":"bytes32"}],"stateMutability":"view"},{"type":"function","name":"EMPLOYER_ROLE","inputs":[],"outputs":[{"name":"","type":"bytes32","internalType":"bytes32"}],"stateMutability":"view"},{"type":"function","name":"addAiAgent","inputs":[{"name":"agent","type":"address","internalType":"address"}],"outputs":[],"stateMutability":"nonpayable"},{"type":"function","name":"addEmployee","inputs":[{"name":"_name","type":"string","internalType":"string"},{"name":"_employeeAddress","type":"address","internalType":"address"},{"name":"_salary","type":"uint256","internalType":"uint256"}],"outputs":[],"stateMutability":"nonpayable"},{"type":"function","name":"addEmployeesBatch","inputs":[{"name":"_names","type":"string[]","internalType":"string[]"},{"name":"_employeeAddresses","type":"address[]","internalType":"address[]"},{"name":"_salaries","type":"uint256[]","internalType":"uint256[]"}],"outputs":[],"stateMutability":"nonpayable"},{"type":"function","name":"addFunds","inputs":[{"name":"_amount","type":"uint256","internalType":"uint256"}],"outputs":[],"stateMutability":"nonpayable"},{"type":"function","name":"createSchedule","inputs":[{"name":"_employeeAddress","type":"address","internalType":"address"},{"name":"_startDate","type":"uint256","internalType":"uint256"},{"name":"_endDate","type":"uint256","internalType":"uint256"},{"name":"_interval","type":"uint8","internalType":"enum RikaManagement.Interval"}],"outputs":[],"stateMutability":"nonpayable"},{"type":"function","name":"deactivateEmployee","inputs":[{"name":"_employeeAddress","type":"address","internalType":"address"}],"outputs":[],"stateMutability":"nonpayable"},{"type":"function","name":"deactivateSchedule","inputs":[{"name":"_employeeAddress","type":"address","internalType":"address"},{"name":"_scheduleId","type":"uint256","internalType":"uint256"}],"outputs":[],"stateMutability":"nonpayable"},{"type":"function","name":"getAllEmployeesWithDetails","inputs":[{"name":"_employer","type":"address","internalType":"address"}],"outputs":[{"name":"","type":"tuple[]","internalType":"struct RikaManagement.Employee[]","components":[{"name":"employeeAddress","type":"address","internalType":"address"},{"name":"name","type":"string","internalType":"string"},{"name":"salary","type":"uint256","internalType":"uint256"},{"name":"joiningDate","type":"uint256","internalType":"uint256"},{"name":"isActive","type":"bool","internalType":"bool"}]}],"stateMutability":"view"},{"type":"function","name":"getEmployee","inputs":[{"name":"employer","type":"address","internalType":"address"},{"name":"employee","type":"address","internalType":"address"}],"outputs":[{"name":"","type":"tuple","internalType":"struct RikaManagement.Employee","components":[{"name":"employeeAddress","type":"address","internalType":"address"},{"name":"name","type":"string","internalType":"string"},{"name":"salary","type":"uint256","internalType":"uint256"},{"name":"joiningDate","type":"uint256","internalType":"uint256"},{"name":"isActive","type":"bool","internalType":"bool"}]}],"stateMutability":"view"},{"type":"function","name":"getEmployeeDetails","inputs":[{"name":"_employer","type":"address","internalType":"address"},{"name":"_employeeAddress","type":"address","internalType":"address"}],"outputs":[{"name":"employeeAddress","type":"address","internalType":"address"},{"name":"name","type":"string","internalType":"string"},{"name":"salary","type":"uint256","internalType":"uint256"},{"name":"joiningDate","type":"uint256","internalType":"uint256"},{"name":"isActive","type":"bool","internalType":"bool"}],"stateMutability":"view"},{"type":"function","name":"getEmployeeDetailsByNameAndAddress","inputs":[{"name":"_employer","type":"address","internalType":"address"},{"name":"_employeeAddress","type":"address","internalType":"address"},{"name":"_name","type":"string","internalType":"string"}],"outputs":[{"name":"employeeAddress","type":"address","internalType":"address"},{"name":"name","type":"string","internalType":"string"},{"name":"salary","type":"uint256","internalType":"uint256"},{"name":"joiningDate","type":"uint256","internalType":"uint256"},{"name":"isActive","type":"bool","internalType":"bool"}],"stateMutability":"view"},{"type":"function","name":"getEmployeeList","inputs":[{"name":"employer","type":"address","internalType":"address"}],"outputs":[{"name":"","type":"address[]","internalType":"address[]"}],"stateMutability":"view"},{"type":"function","name":"getEmployer","inputs":[],"outputs":[{"name":"","type":"address","internalType":"address"}],"stateMutability":"view"},{"type":"function","name":"getEmployerBalance","inputs":[{"name":"_employer","type":"address","internalType":"address"}],"outputs":[{"name":"","type":"uint256","internalType":"uint256"}],"stateMutability":"view"},{"type":"function","name":"getNextPayrollDate","inputs":[{"name":"_employer","type":"address","internalType":"address"},{"name":"_employeeAddress","type":"address","internalType":"address"}],"outputs":[{"name":"nextPaymentDate","type":"uint256","internalType":"uint256"}],"stateMutability":"view"},{"type":"function","name":"getRoleAdmin","inputs":[{"name":"role","type":"bytes32","internalType":"bytes32"}],"outputs":[{"name":"","type":"bytes32","internalType":"bytes32"}],"stateMutability":"view"},{"type":"function","name":"getSchedules","inputs":[{"name":"employer","type":"address","internalType":"address"},{"name":"employee","type":"address","internalType":"address"}],"outputs":[{"name":"","type":"tuple[]","internalType":"struct RikaManagement.Schedule[]","components":[{"name":"scheduleId","type":"uint256","internalType":"uint256"},{"name":"startDate","type":"uint256","internalType":"uint256"},{"name":"endDate","type":"uint256","internalType":"uint256"},{"name":"interval","type":"uint8","internalType":"enum RikaManagement.Interval"},{"name":"lastProcessedDate","type":"uint256","internalType":"uint256"},{"name":"isProcessed","type":"bool","internalType":"bool"},{"name":"isActive","type":"bool","internalType":"bool"}]}],"stateMutability":"view"},{"type":"function","name":"getTotalEmployees","inputs":[{"name":"_employer","type":"address","internalType":"address"}],"outputs":[{"name":"","type":"uint256","internalType":"uint256"}],"stateMutability":"view"},{"type":"function","name":"getTotalPayrollLiability","inputs":[{"name":"_employer","type":"address","internalType":"address"}],"outputs":[{"name":"totalLiability","type":"uint256","internalType":"uint256"}],"stateMutability":"view"},{"type":"function","name":"grantRole","inputs":[{"name":"role","type":"bytes32","internalType":"bytes32"},{"name":"account","type":"address","internalType":"address"}],"outputs":[],"stateMutability":"nonpayable"},{"type":"function","name":"hasRole","inputs":[{"name":"role","type":"bytes32","internalType":"bytes32"},{"name":"account","type":"address","internalType":"address"}],"outputs":[{"name":"","type":"bool","internalType":"bool"}],"stateMutability":"view"},{"type":"function","name":"hasSufficientBalanceForPayroll","inputs":[{"name":"_employer","type":"address","internalType":"address"}],"outputs":[{"name":"","type":"bool","internalType":"bool"}],"stateMutability":"view"},{"type":"function","name":"initialize","inputs":[{"name":"_usdcToken","type":"address","internalType":"address"},{"name":"_employer","type":"address","internalType":"address"}],"outputs":[],"stateMutability":"nonpayable"},{"type":"function","name":"paused","inputs":[],"outputs":[{"name":"","type":"bool","internalType":"bool"}],"stateMutability":"view"},{"type":"function","name":"processAllPayrolls","inputs":[],"outputs":[],"stateMutability":"nonpayable"},{"type":"function","name":"reactivateEmployee","inputs":[{"name":"_employeeAddress","type":"address","internalType":"address"}],"outputs":[],"stateMutability":"nonpayable"},{"type":"function","name":"removeAiAgent","inputs":[{"name":"agent","type":"address","internalType":"address"}],"outputs":[],"stateMutability":"nonpayable"},{"type":"function","name":"renounceRole","inputs":[{"name":"role","type":"bytes32","internalType":"bytes32"},{"name":"callerConfirmation","type":"address","internalType":"address"}],"outputs":[],"stateMutability":"nonpayable"},{"type":"function","name":"revokeRole","inputs":[{"name":"role","type":"bytes32","internalType":"bytes32"},{"name":"account","type":"address","internalType":"address"}],"outputs":[],"stateMutability":"nonpayable"},{"type":"function","name":"supportsInterface","inputs":[{"name":"interfaceId","type":"bytes4","internalType":"bytes4"}],"outputs":[{"name":"","type":"bool","internalType":"bool"}],"stateMutability":"view"},{"type":"function","name":"updateEmployeeSalary","inputs":[{"name":"_employeeAddress","type":"address","internalType":"address"},{"name":"_newSalary","type":"uint256","internalType":"uint256"}],"outputs":[],"stateMutability":"nonpayable"},{"type":"function","name":"updateSalariesBatch","inputs":[{"name":"_employeeAddresses","type":"address[]","internalType":"address[]"},{"name":"_newSalaries","type":"uint256[]","internalType":"uint256[]"}],"outputs":[],"stateMutability":"nonpayable"},{"type":"function","name":"updateSchedule","inputs":[{"name":"_employeeAddress","type":"address","internalType":"address"},{"name":"_scheduleId","type":"uint256","internalType":"uint256"},{"name":"_interval","type":"uint8","internalType":"enum RikaManagement.Interval"}],"outputs":[],"stateMutability":"nonpayable"},{"type":"function","name":"usdcToken","inputs":[],"outputs":[{"name":"","type":"address","internalType":"contract IERC20"}],"stateMutability":"view"},{"type":"function","name":"withdrawFunds","inputs":[{"name":"_amount","type":"uint256","internalType":"uint256"}],"outputs":[],"stateMutability":"nonpayable"},{"type":"event","name":"EmployeeAdded","inputs":[{"name":"employer","type":"address","indexed":true,"internalType":"address"},{"name":"employeeAddress","type":"address","indexed":true,"internalType":"address"},{"name":"name","type":"string","indexed":false,"internalType":"string"}],"anonymous":false},{"type":"event","name":"EmployeeDeactivated","inputs":[{"name":"employer","type":"address","indexed":true,"internalType":"address"},{"name":"employeeAddress","type":"address","indexed":true,"internalType":"address"}],"anonymous":false},{"type":"event","name":"EmployeeReactivated","inputs":[{"name":"employer","type":"address","indexed":true,"internalType":"address"},{"name":"employeeAddress","type":"address","indexed":true,"internalType":"address"}],"anonymous":false},{"type":"event","name":"EmployeeUpdated","inputs":[{"name":"employer","type":"address","indexed":true,"internalType":"address"},{"name":"employeeAddress","type":"address","indexed":true,"internalType":"address"}],"anonymous":false},{"type":"event","name":"FundsAdded","inputs":[{"name":"employer","type":"address","indexed":true,"internalType":"address"},{"name":"amount","type":"uint256","indexed":false,"internalType":"uint256"}],"anonymous":false},{"type":"event","name":"FundsWithdrawn","inputs":[{"name":"employer","type":"address","indexed":true,"internalType":"address"},{"name":"amount","type":"uint256","indexed":false,"internalType":"uint256"}],"anonymous":false},{"type":"event","name":"Paused","inputs":[{"name":"account","type":"address","indexed":false,"internalType":"address"}],"anonymous":false},{"type":"event","name":"PayrollProcessed","inputs":[{"name":"employer","type":"address","indexed":true,"internalType":"address"},{"name":"totalPayout","type":"uint256","indexed":false,"internalType":"uint256"},{"name":"timestamp","type":"uint256","indexed":false,"internalType":"uint256"}],"anonymous":false},{"type":"event","name":"RoleAdminChanged","inputs":[{"name":"role","type":"bytes32","indexed":true,"internalType":"bytes32"},{"name":"previousAdminRole","type":"bytes32","indexed":true,"internalType":"bytes32"},{"name":"newAdminRole","type":"bytes32","indexed":true,"internalType":"bytes32"}],"anonymous":false},{"type":"event","name":"RoleGranted","inputs":[{"name":"role","type":"bytes32","indexed":true,"internalType":"bytes32"},{"name":"account","type":"address","indexed":true,"internalType":"address"},{"name":"sender","type":"address","indexed":true,"internalType":"address"}],"anonymous":false},{"type":"event","name":"RoleRevoked","inputs":[{"name":"role","type":"bytes32","indexed":true,"internalType":"bytes32"},{"name":"account","type":"address","indexed":true,"internalType":"address"},{"name":"sender","type":"address","indexed":true,"internalType":"address"}],"anonymous":false},{"type":"event","name":"SalaryPaid","inputs":[{"name":"employer","type":"address","indexed":true,"internalType":"address"},{"name":"employeeAddress","type":"address","indexed":true,"internalType":"address"},{"name":"amount","type":"uint256","indexed":false,"internalType":"uint256"}],"anonymous":false},{"type":"event","name":"ScheduleCreated","inputs":[{"name":"employer","type":"address","indexed":true,"internalType":"address"},{"name":"employeeAddress","type":"address","indexed":true,"internalType":"address"},{"name":"scheduleId","type":"uint256","indexed":false,"internalType":"uint256"},{"name":"startDate","type":"uint256","indexed":false,"internalType":"uint256"},{"name":"endDate","type":"uint256","indexed":false,"internalType":"uint256"},{"name":"interval","type":"uint8","indexed":false,"internalType":"enum RikaManagement.Interval"}],"anonymous":false},{"type":"event","name":"ScheduleUpdated","inputs":[{"name":"employer","type":"address","indexed":true,"internalType":"address"},{"name":"employeeAddress","type":"address","indexed":true,"internalType":"address"},{"name":"scheduleId","type":"uint256","indexed":false,"internalType":"uint256"},{"name":"interval","type":"uint8","indexed":false,"internalType":"enum RikaManagement.Interval"}],"anonymous":false},{"type":"event","name":"Unpaused","inputs":[{"name":"account","type":"address","indexed":false,"internalType":"address"}],"anonymous":false},{"type":"error","name":"AccessControlBadConfirmation","inputs":[]},{"type":"error","name":"AccessControlUnauthorizedAccount","inputs":[{"name":"account","type":"address","internalType":"address"},{"name":"neededRole","type":"bytes32","internalType":"bytes32"}]},{"type":"error","name":"AlreadyInitialized","inputs":[]},{"type":"error","name":"ArrayLengthMismatch","inputs":[]},{"type":"error","name":"EmployeeAlreadyExists","inputs":[]},{"type":"error","name":"EmployeeNotFound","inputs":[]},{"type":"error","name":"EnforcedPause","inputs":[]},{"type":"error","name":"ExpectedPause","inputs":[]},{"type":"error","name":"InsufficientAllowance","inputs":[]},{"type":"error","name":"InsufficientBalance","inputs":[]},{"type":"error","name":"InvalidAddress","inputs":[]},{"type":"error","name":"InvalidInitAddress","inputs":[]},{"type":"error","name":"InvalidSchedule","inputs":[]},{"type":"error","name":"OverlappingSchedule","inputs":[]},{"type":"error","name":"PayrollAlreadyProcessed","inputs":[]},{"type":"error","name":"SafeERC20FailedOperation","inputs":[{"name":"token","type":"address","internalType":"address"}]},{"type":"error","name":"ScheduleNotCompleted","inputs":[]},{"type":"error","name":"TransferFailed","inputs":[]},{"type":"error","name":"UnauthorizedAccess","inputs":[]},{"type":"error","name":"WithdrawalLocked","inputs":[{"name":"nextPayrollDate","type":"uint256","internalType":"uint256"}]},{"type":"error","name":"ZeroAmount","inputs":[]}],"bytecode":{"object":"0x60808060405234601f5760ff1960015416600155612f9390816100248239f35b5f80fdfe60806040526004361015610011575f80fd5b5f3560e01c80629da8b91461256557806301ffc9a71461250f578063040f7f94146124725780630e6edd37146123d057806311eac855146123a8578063155dd5ee1461220957806315e1bbc4146120405780632426bb3814612006578063248a9ca314611fd457806325b8e7eb14611fad5780632e9db8d714611f755780632f2ff15d14611f385780632fce027014611eff57806336568abe14611ebb5780633ca6b22814611d79578063485cc95514611c575780634b9136f514611c1f5780635c975abb14611bfd5780636a663e1814611b565780636cf947cf146118b1578063769f6df2146116495780638a7084ba1461127d57806391d14854146112355780639276ddbe146110e5578063a217fddf146110cb578063a2b299c11461109f578063a3f2996a14610e3f578063b44a2e8914610d91578063bb97eab7146109cb578063be9997051461088b578063c5dbc45214610711578063cd9cc6cb1461064b578063cf2622bd14610599578063d085e87814610404578063d547741f146103c2578063d805e6fb146102d0578063de395c46146102865763ec34ece8146101ba575f80fd5b34610282576040366003190112610282576101d36126ec565b6024356101de612ac4565b6101e66129e1565b335f52600360205260405f2060018060a01b0383165f52602052600360405f2001541561027357801561026457335f52600360205260405f2060018060a01b0383165f52602052600260405f20015560018060a01b0316337f809c015ef1dd78491f1c4fca48656aeaddc2f80b729a763e285a73dc476444225f80a3005b631f2a200560e01b5f5260045ffd5b635d70aba760e11b5f5260045ffd5b5f80fd5b346102825760203660031901126102825761029f6126ec565b6102a7612a3d565b6001600160a01b038116156102c1576102bf90612d74565b005b63e6c4247b60e01b5f5260045ffd5b34610282576040366003190112610282576102e96126ec565b602435906102f56129e1565b335f52600360205260405f2060018060a01b0382165f52602052600360405f2001541561027357335f52600560205260405f2060018060a01b0382165f5260205260405f2080548310156103b35760ff600361036b8584600561035b8361037f98612927565b5001805461ff0019169055612927565b5001541660405193845260208401906128dd565b6001600160a01b03169033907f41959c380867bfafa4ab90ea72b4150bc0cbabcb95adbaf640b657c2eb5d00a190604090a3005b631b742d9d60e31b5f5260045ffd5b34610282576040366003190112610282576102bf6004356103e1612702565b906103ff6103fa825f525f602052600160405f20015490565b612a8c565b612e05565b346102825760603660031901126102825761041d6126ec565b610425612702565b6044356001600160401b0381116102825761044490369060040161284f565b9160018060a01b03165f52600360205260405f209060018060a01b03165f5260205260405f20906040516104778161267e565b82546001600160a01b03168152604051600184018054949190815f61049b8861295a565b9283835260208301986001811690815f1461057a5750600114610536575b506104c6925003826126b4565b60208301938185526002830154956040850196875260ff600460038601549560608801968752015416926080860193151584525190209060208151910120036102735791519251935190519151604051948594610532949215159391906001600160a01b0316866128a4565b0390f35b90505f9291925260205f20905f915b81831061055e5750509060206104c692820101886104b9565b6020919350806001915483858801015201910190918392610545565b60ff19168a52506104c693151560051b830160200191508990506104b9565b34610282576060366003190112610282576105b26126ec565b602435906044356003811015610282576105ca612ac4565b6105d26129e1565b335f52600360205260405f2060018060a01b0383165f52602052600360405f2001541561027357335f52600560205260405f2060018060a01b0383165f5260205260405f209081548410156103b35761063b8160036106348761037f96612927565b50016129c9565b60405193845260208401906128dd565b34610282576020366003190112610282576001600160a01b0361066c6126ec565b165f52600460205260405f20604051806020835491828152019081935f5260205f20905f5b8181106106f257505050816106a79103826126b4565b604051918291602083019060208452518091526040830191905f5b8181106106d0575050500390f35b82516001600160a01b03168452859450602093840193909201916001016106c2565b82546001600160a01b0316845260209093019260019283019201610691565b346102825760403660031901126102825761072a6126ec565b610732612702565b9060018060a01b03165f52600560205260405f209060018060a01b03165f5260205260405f20805490610764826126d5565b9161077260405193846126b4565b8083526020830180925f5260205f205f915b83831061081a578486604051918291602083019060208452518091526040830191905f5b8181106107b6575050500390f35b91935091602060e060019260c08751805183528481015185840152604081015160408401526107ed606082015160608501906128dd565b6080810151608084015260a0810151151560a08401520151151560c08201520194019101918493926107a8565b6006602060019260405161082d81612699565b8554815284860154838201526002860154604082015261085760ff600388015416606083016129bd565b6004860154608082015260ff6005870154818116151560a084015260081c16151560c0820152815201920192019190610784565b34610282576020366003190112610282576004356108a7612ac4565b6108af6129e1565b801561026457600254604051636eb1769f60e11b81523360048201523060248201526001600160a01b0390911690602081604481855afa80156109c05783915f9161098b575b501061097c576040516323b872dd60e01b602082015233602482015230604482015260648082018490528152610935916109306084836126b4565b612e85565b335f52600660205260405f2061094c828254612940565b90556040519081527f8fe10ae416f22f5e5220b0018a6c1d4ff534d6aa3a471f2a20cb7747fe63e5b960203392a2005b6313be252b60e01b5f5260045ffd5b9150506020813d6020116109b8575b816109a7602093836126b4565b8101031261028257829051846108f5565b3d915061099a565b6040513d5f823e3d90fd5b34610282575f366003190112610282576109e3612ac4565b335f9081525f516020612f1e5f395f51905f52602052604090205460ff161580610d6c575b610d5d57335f52600460205260405f20604051808260208294549384815201905f5260205f20925f5b818110610d3b575050610a46925003826126b4565b805115610273575f90335f52600660205260405f2054905f5b8151811015610b7257335f9081526003602052604090206001600160a01b03610a8883856128ea565b516001600160a01b03911681165f908152602092835260408082203383526005909452902090610ab884866128ea565b511660018060a01b03165f5260205260405f20905f918054916002810154905b838510610aec575050505050600101610a5f565b9091929397610afb8985612927565b5060ff600582015460081c16158015610b63575b610b595780610b2c60ff60036004610b3295015493015416612adf565b90612940565b4210610b5057610b4483600192612940565b985b0193929190610ad8565b97600190610b46565b5097600190610b46565b5060ff60048401541615610b0f565b50828210610d2c57825f915b8051831015610ce957335f9081526003602052604090209193916001600160a01b03610baa85846128ea565b511660018060a01b03165f5260205260405f2091335f52600560205260405f2060018060a01b03610bdb86856128ea565b511660018060a01b03165f5260205260405f20935f9360028101945b8654811015610cd65780610c0d60019289612927565b5060ff600582015460081c16158015610cc7575b610cc157610c3f6004820191610b2c60ff6003855493015416612adf565b4210610cc157429055610c7a610c578854809761294d565b95838060a01b0360025416848060a01b03610c72888b6128ea565b511690612b13565b818060a01b03610c8a85886128ea565b511687546040519081527f97392c5d33b1386b104ad21e5f27e3aabf036b5403971bf8c046e4c94102245460203392a35b01610bf7565b50610cbb565b5060ff60048501541615610c21565b5050909350600191925001919290610b7e565b5082335f52600660205260405f20556040519081524260208201527fd289bee4ba9d8cf2dd1d07aea915466099b5ee31de4e5a161d0f6b72d307e91760403392a2005b631e9acf1760e31b5f5260045ffd5b84546001600160a01b0316835260019485019486945060209093019201610a31565b631a27eac360e11b5f5260045ffd5b50335f9081525f516020612efe5f395f51905f52602052604090205460ff1615610a08565b3461028257604036600319011261028257610daa6126ec565b610db2612702565b6001600160a01b039182165f90815260056020908152604080832093909416825291909152908120805490825b828110610df157602084604051908152f35b610dfb8183612927565b5060ff600582015460081c16610e15575b50600101610ddf565b80610b2c60ff60036004610e2e95015493015416612adf565b84811115610e0c5793506001610e0c565b3461028257608036600319011261028257610e586126ec565b60243590604435606435600381101561028257610e73612ac4565b610e7b6129e1565b335f52600360205260405f2060018060a01b0384165f52602052600360405f2001541561027357335f52600360205260405f2060018060a01b0384165f5260205260ff600460405f200154161561027357818410156103b357335f52600560205260405f2060018060a01b0384165f5260205260405f20915f948354955b868110611056575060405193610f0e85612699565b86855260208501908282526040860184815260608701610f2e87826129bd565b608088019142835260a08901945f865260c08a019460018652600160401b8d1015611042578c610f6391600182018155612927565b9a909a61102f57518a555160018a015551600289015551600381101561101b5787610fb792610f9a6005936003610fe79c016129c9565b5160048201550192511515839060ff801983541691151516179055565b51151561ff0082549160081b169061ff0019161790556040519586526020860152604085015260608401906128dd565b6001600160a01b03169033907f848dc6501f51b7436a2d9388af6525fc3f228c0afab07ad074abfb397aa6215490608090a3005b634e487b7160e01b5f52602160045260245ffd5b634e487b7160e01b5f525f60045260245ffd5b634e487b7160e01b5f52604160045260245ffd5b60026110628287612927565b500154821080611088575b61107957600101610ef9565b63762f38cd60e01b5f5260045ffd5b5060016110958287612927565b500154831161106d565b34610282575f3660031901126102825760015460405160109190911c6001600160a01b03168152602090f35b34610282575f3660031901126102825760206040515f8152f35b34610282576040366003190112610282576110fe6126ec565b611106612702565b9060018060a01b03165f52600360205260405f209060018060a01b03165f5260205260405f20604051906111398261267e565b80546001600160a01b0316825260405160018201805491939184915f91906111608261295a565b808552916001811690811561120e57506001146111cf575b5050610532929161118a9103856126b4565b83602082015260028301549283604083015260ff600460038301549283606086015201541615159182608082015260018060a01b0390511693604051958695866128a4565b5f908152602081209092505b8183106111f257505081016020018161118a611178565b6020919350806001915483858a010152019101909185926111db565b60ff191660208681019190915292151560051b8501909201925083915061118a9050611178565b346102825760403660031901126102825761124e612702565b6004355f525f60205260405f209060018060a01b03165f52602052602060ff60405f2054166040519015158152f35b34610282576060366003190112610282576004356001600160401b03811161028257366023820112156102825780600401356112b8816126d5565b916112c660405193846126b4565b8183526024602084019260051b820101903682116102825760248101925b82841061161a57846024356001600160401b0381116102825761130b903690600401612718565b906044356001600160401b0381116102825761132b903690600401612786565b6113336129e1565b815183518091149081159161160e575b506115ff575f5b83518110156102bf5761135d81846128ea565b51906001600160a01b0361137182876128ea565b511661137d82856128ea565b51611386612ac4565b61138e6129e1565b81156102c157801561026457335f52600360205260405f2060018060a01b0383165f52602052600360405f2001546115f057604051906113cd8261267e565b828252602080830186815260408085019384524260608601908152600160808701818152335f908152600387528481206001600160a01b03808c168352975293909320965187546001600160a01b03191695169490941786559151805191949293860191906001600160401b0382116110425761144a835461295a565b601f81116115ab575b50602090601f831160011461153e57918060049694926114ad999896945f92611533575b50508160011b915f199060031b1c19161790555b51600285015551600384015551151591019060ff801983541691151516179055565b335f52600460205260405f2092835493600160401b85101561104257846114da9160018097018155612912565b81549060031b9084821b91878060a01b03901b19161790557fc7b8ebf52ebf4d1384b6ec0c9b34e4f01dfe3bd1aacc6211495d69f7c66e5af3604051602081528061152a339460208301906127e3565b0390a30161134a565b015190508f80611477565b90601f19831691845f52815f20925f5b81811061159357509260019285926114ad9b9a989660049a98961061157b575b505050811b01905561148b565b01515f1960f88460031b161c191690558f808061156e565b9293602060018192878601518155019501930161154e565b835f5260205f20601f840160051c810191602085106115e6575b601f0160051c01905b8181106115db5750611453565b5f81556001016115ce565b90915081906115c5565b63117059fd60e21b5f5260045ffd5b63512509d360e11b5f5260045ffd5b90508151141584611343565b83356001600160401b0381116102825760209161163e83926024369187010161284f565b8152019301926112e4565b34610282576020366003190112610282576001600160a01b0361166a6126ec565b16805f52600460205260405f2090604051808360208295549384815201905f5260205f20925f5b81811061188f5750506116a6925003836126b4565b8151916116b2836126d5565b926116c060405194856126b4565b8084526116cf601f19916126d5565b015f5b8181106118785750505f5b8151811015611811575f8381526003602052604090206001600160a01b0361170583856128ea565b511660018060a01b03165f5260205260405f20604051906117258261267e565b80546001600160a01b031682526040516001820180545f916117468261295a565b80855291600181169081156117ec57506001146117b5575b505060019493928261177660ff9460049403826126b4565b60208501526002810154604085015260038101546060850152015416151560808201526117a382876128ea565b526117ae81866128ea565b50016116dd565b5f908152602081209092505b8183106117d65750508101602001828261175e565b60018160209254838688010152019201916117c1565b60ff191660208087019190915292151560051b8501909201925084915083905061175e565b836040518091602082016020835281518091526040830190602060408260051b8601019301915f905b82821061184957505050500390f35b919360019193955060206118688192603f198a82030186528851612807565b960192019201859493919261183a565b602090611883612992565b828288010152016116d2565b84546001600160a01b0316835260019485019487945060209093019201611691565b34610282576060366003190112610282576004356001600160401b038111610282576118e190369060040161284f565b6118e9612702565b90604435916118f6612ac4565b6118fe6129e1565b6001600160a01b03169182156102c157801561026457335f52600360205260405f20835f52602052600360405f2001546115f0576040519061193f8261267e565b838252602080830184815260408085019384524260608601908152600160808701818152335f908152600387528481208b825290965292909420955186546001600160a01b0319166001600160a01b03919091161786559151805191949293860191906001600160401b038211611042576119ba835461295a565b601f8111611b11575b50602090601f8311600114611aa55791806004969492611a1b999896945f92611a9a5750508160011b915f199060031b1c191617905551600285015551600384015551151591019060ff801983541691151516179055565b335f52600460205260405f208054600160401b81101561104257611a4491600182018155612912565b81549060031b9084821b9160018060a01b03901b19161790557fc7b8ebf52ebf4d1384b6ec0c9b34e4f01dfe3bd1aacc6211495d69f7c66e5af36040516020815280611a95339460208301906127e3565b0390a3005b015190508b80611477565b90601f19831691845f52815f20925f5b818110611af95750926001928592611a1b9b9a989660049a989610611ae157505050811b01905561148b565b01515f1960f88460031b161c191690558b808061156e565b92936020600181928786015181550195019301611ab5565b835f5260205f20601f840160051c81019160208510611b4c575b601f0160051c01905b818110611b4157506119c3565b5f8155600101611b34565b9091508190611b2b565b3461028257602036600319011261028257611b6f6126ec565b611b77612ac4565b611b7f6129e1565b335f52600360205260405f2060018060a01b0382165f52602052600360405f2001541561027357335f8181526003602090815260408083206001600160a01b0395909516808452949091528120600401805460ff191690557f74b90201778ddf04c340c7cc9501b9d0e29d4891f62b0bd3768fa511228ad2e59080a3005b34610282575f36600319011261028257602060ff600154166040519015158152f35b34610282576020366003190112610282576001600160a01b03611c406126ec565b165f526004602052602060405f2054604051908152f35b3461028257604036600319011261028257611c706126ec565b611c78612702565b6001549160ff8360081c16611d6b576001600160a01b031680158015611d5a575b611d4b57600280546001600160a01b0319169091179055610100600160b01b0319909116601082901b62010000600160b01b031617610100176001555f516020612f3e5f395f51905f525f81815260208190527fe2cba31f4bc11a0ffdcf6285f6faa577a0ac170ef92004a78f001343d31b3b98805490829055611d4193927fbd79b86ffe0ab8e8776151514217cd7cacd52c909f66475c3af44e129f0b00ff8380a4612bd5565b506102bf33612c68565b634575c84960e11b5f5260045ffd5b506001600160a01b03821615611c99565b62dc149f60e41b5f5260045ffd5b3461028257604036600319011261028257611d926126ec565b611d9a612702565b90611da3612992565b5060018060a01b03165f52600360205260405f209060018060a01b03165f5260205260405f20604051611dd58161267e565b81546001600160a01b031681526040516001830180545f91611df68261295a565b8085529160018116908115611e965750600114611e5b575b6105328560ff60048988611e24818a03826126b4565b6020850152600281015460408501526003810154606085015201541615156080820152604051918291602083526020830190612807565b5f908152602081209092505b818310611e7c57505081016020018382611e0e565b600181602092949394548385880101520191019190611e67565b60ff191660208087019190915292151560051b85019092019250859150839050611e0e565b3461028257604036600319011261028257611ed4612702565b336001600160a01b03821603611ef0576102bf90600435612e05565b63334bd91960e11b5f5260045ffd5b3461028257602036600319011261028257611f186126ec565b611f20612a3d565b6001600160a01b038116156102c1576102bf90612b50565b34610282576040366003190112610282576102bf600435611f57612702565b90611f706103fa825f525f602052600160405f20015490565b612cff565b34610282576020366003190112610282576001600160a01b03611f966126ec565b165f526006602052602060405f2054604051908152f35b34610282575f3660031901126102825760206040515f516020612f3e5f395f51905f528152f35b34610282576020366003190112610282576020611ffe6004355f525f602052600160405f20015490565b604051908152f35b34610282575f3660031901126102825760206040517ffc7c36207174f786648d2e624616a4b40e15fd7f0268b4e36af5057f0c43c8358152f35b34610282576020366003190112610282576120596126ec565b5f9060018060a01b0316805f52600460205260405f20604051808260208294549384815201905f5260205f20925f5b8181106121e757505061209d925003826126b4565b5f5b81518110156121dc575f8381526003602052604090206001600160a01b036120c783856128ea565b511660018060a01b03165f5260205260405f206040516120e68161267e565b81546001600160a01b031681526040516001830180545f916121078261295a565b80855291600181169081156121b5575060011461217c575b505090612131816080949303826126b4565b602082015260ff60046002850154948560408501526003810154606085015201541615159182910152612168575b5060010161209f565b6121759060019295612940565b939061215f565b5f908152602081209092505b81831061219f57505081016020016121318261211f565b6001816020925483868801015201920191612188565b60ff191660208087019190915292151560051b85019092019250612131915083905061211f565b602084604051908152f35b84546001600160a01b0316835260019485019486945060209093019201612088565b3461028257602036600319011261028257600435612225612ac4565b61222d6129e1565b801561026457335f5260066020528060405f205410610d2c575f335f52600460205260405f205f908054915b82811061230e57505050801515806122e3575b6122d15750335f52600660205260405f2061228882825461294d565b90556002546122a390829033906001600160a01b0316612b13565b6040519081527feaff4b37086828766ad3268786972c0cd24259d4c87a80f9d3963a3c3d999b0d60203392a2005b63213bea0b60e11b5f5260045260245ffd5b506203f47f1981018181116122fa5742101561226c565b634e487b7160e01b5f52601160045260245ffd5b335f52600560205260405f206123248284612912565b905460039190911b1c6001600160a01b03165f908152602091909152604081208054915b82811061235a57505050600101612259565b6123648183612927565b5060ff600582015460081c1661237e575b50600101612348565b80610b2c60ff6003600461239795015493015416612adf565b878111156123755796506001612375565b34610282575f366003190112610282576002546040516001600160a01b039091168152602090f35b34610282576020366003190112610282576123e96126ec565b6123f16129e1565b335f52600360205260405f2060018060a01b0382165f52602052600360405f2001541561027357335f8181526003602090815260408083206001600160a01b0395909516808452949091528120600401805460ff191660011790557f809c015ef1dd78491f1c4fca48656aeaddc2f80b729a763e285a73dc476444229080a3005b346102825760203660031901126102825761248b6126ec565b6040516305786ef160e21b81526001600160a01b0390911660048201819052602082602481305afa9081156109c0575f916124da575b602092505f526006825260405f20541015604051908152f35b90506020823d602011612507575b816124f5602093836126b4565b810103126102825760209151906124c1565b3d91506124e8565b346102825760203660031901126102825760043563ffffffff60e01b811680910361028257602090637965db0b60e01b8114908115612554575b506040519015158152f35b6301ffc9a760e01b14905082612549565b34610282576040366003190112610282576004356001600160401b03811161028257612595903690600401612718565b6024356001600160401b038111610282576125b4903690600401612786565b906125bd6129e1565b80518251036115ff575f5b81518110156102bf576001600160a01b036125e382846128ea565b5116906125f081856128ea565b51916125fa612ac4565b6126026129e1565b335f52600360205260405f2060018060a01b0382165f52602052600360405f2001541561027357821561026457600192335f52600360205260405f20848060a01b0383165f52602052600260405f200155337f809c015ef1dd78491f1c4fca48656aeaddc2f80b729a763e285a73dc476444225f80a3016125c8565b60a081019081106001600160401b0382111761104257604052565b60e081019081106001600160401b0382111761104257604052565b90601f801991011681019081106001600160401b0382111761104257604052565b6001600160401b0381116110425760051b60200190565b600435906001600160a01b038216820361028257565b602435906001600160a01b038216820361028257565b9080601f8301121561028257813590612730826126d5565b9261273e60405194856126b4565b82845260208085019360051b82010191821161028257602001915b8183106127665750505090565b82356001600160a01b038116810361028257815260209283019201612759565b9080601f8301121561028257813561279d816126d5565b926127ab60405194856126b4565b81845260208085019260051b82010192831161028257602001905b8282106127d35750505090565b81358152602091820191016127c6565b805180835260209291819084018484015e5f828201840152601f01601f1916010190565b9060018060a01b038251168152608080612830602085015160a0602086015260a08501906127e3565b9360408101516040850152606081015160608501520151151591015290565b81601f82011215610282578035906001600160401b0382116110425760405192612883601f8401601f1916602001856126b4565b8284526020838301011161028257815f926020809301838601378301015290565b93906080939695926128cb9160018060a01b0316865260a0602087015260a08601906127e3565b95604085015260608401521515910152565b90600382101561101b5752565b80518210156128fe5760209160051b010190565b634e487b7160e01b5f52603260045260245ffd5b80548210156128fe575f5260205f2001905f90565b80548210156128fe575f52600660205f20910201905f90565b919082018092116122fa57565b919082039182116122fa57565b90600182811c92168015612988575b602083101461297457565b634e487b7160e01b5f52602260045260245ffd5b91607f1691612969565b6040519061299f8261267e565b5f608083828152606060208201528260408201528260608201520152565b600382101561101b5752565b90600381101561101b5760ff80198354169116179055565b335f9081525f516020612f1e5f395f51905f52602052604090205460ff1615612a0657565b63e2517d3f60e01b5f52336004527ffc7c36207174f786648d2e624616a4b40e15fd7f0268b4e36af5057f0c43c83560245260445ffd5b335f9081527fad3228b676f7d3cd4284a5443f17f1962b36e491b30a40b2405849e597ba5fb5602052604090205460ff1615612a7557565b63e2517d3f60e01b5f52336004525f60245260445ffd5b5f8181526020818152604080832033845290915290205460ff1615612aae5750565b63e2517d3f60e01b5f523360045260245260445ffd5b60ff60015416612ad057565b63d93c066560e01b5f5260045ffd5b600381101561101b5780612af5575062093a8090565b60018103612b0557506212750090565b6002036103b35762278d0090565b60405163a9059cbb60e01b60208201526001600160a01b039092166024830152604480830193909352918152612b4e916109306064836126b4565b565b6001600160a01b0381165f9081525f516020612efe5f395f51905f52602052604090205460ff16612bd0576001600160a01b03165f8181525f516020612efe5f395f51905f5260205260408120805460ff191660011790553391905f516020612f3e5f395f51905f52905f516020612ede5f395f51905f529080a4600190565b505f90565b6001600160a01b0381165f9081525f516020612f1e5f395f51905f52602052604090205460ff16612bd0576001600160a01b03165f8181525f516020612f1e5f395f51905f5260205260408120805460ff191660011790553391907ffc7c36207174f786648d2e624616a4b40e15fd7f0268b4e36af5057f0c43c835905f516020612ede5f395f51905f529080a4600190565b6001600160a01b0381165f9081527fad3228b676f7d3cd4284a5443f17f1962b36e491b30a40b2405849e597ba5fb5602052604090205460ff16612bd0576001600160a01b03165f8181527fad3228b676f7d3cd4284a5443f17f1962b36e491b30a40b2405849e597ba5fb560205260408120805460ff191660011790553391905f516020612ede5f395f51905f528180a4600190565b5f818152602081815260408083206001600160a01b038616845290915290205460ff16612d6e575f818152602081815260408083206001600160a01b0395909516808452949091528120805460ff19166001179055339291905f516020612ede5f395f51905f529080a4600190565b50505f90565b6001600160a01b0381165f9081525f516020612efe5f395f51905f52602052604090205460ff1615612bd0576001600160a01b03165f8181525f516020612efe5f395f51905f5260205260408120805460ff191690553391905f516020612f3e5f395f51905f52907ff6391f5c32d9c69d2a47ea670b442974b53935d1edc7fd64eb21e047a839171b9080a4600190565b5f818152602081815260408083206001600160a01b038616845290915290205460ff1615612d6e575f818152602081815260408083206001600160a01b0395909516808452949091528120805460ff19169055339291907ff6391f5c32d9c69d2a47ea670b442974b53935d1edc7fd64eb21e047a839171b9080a4600190565b905f602091828151910182855af1156109c0575f513d612ed457506001600160a01b0381163b155b612eb45750565b635274afe760e01b5f9081526001600160a01b0391909116600452602490fd5b60011415612ead56fe2f8788117e7eff1d82e926ec794901d17c78024a50270940304540a733656f0de2cba31f4bc11a0ffdcf6285f6faa577a0ac170ef92004a78f001343d31b3b979750accf27f3aaa2ee9af8a0d75778e5f1905b9db8fe4b539d9e6ecc553b7f74faa623ff490ff9197b5ad863cd7f72b33e2e131994d09bd7260d7cd680faad79a264697066735822122066947b93dfbb1c8e803953072bf2b99434fb68297dc6ebd8ecfa58ac26591f4564736f6c634300081c0033","linkReferences":{}},"methodIdentifiers":{"AI_AGENT_ROLE()":"25b8e7eb","DEFAULT_ADMIN_ROLE()":"a217fddf","EMPLOYER_ROLE()":"2426bb38","addAiAgent(address)":"2fce0270","addEmployee(string,address,uint256)":"6cf947cf","addEmployeesBatch(string[],address[],uint256[])":"8a7084ba","addFunds(uint256)":"be999705","createSchedule(address,uint256,uint256,uint8)":"a3f2996a","deactivateEmployee(address)":"6a663e18","deactivateSchedule(address,uint256)":"d805e6fb","getAllEmployeesWithDetails(address)":"769f6df2","getEmployee(address,address)":"3ca6b228","getEmployeeDetails(address,address)":"9276ddbe","getEmployeeDetailsByNameAndAddress(address,address,string)":"d085e878","getEmployeeList(address)":"cd9cc6cb","getEmployer()":"a2b299c1","getEmployerBalance(address)":"2e9db8d7","getNextPayrollDate(address,address)":"b44a2e89","getRoleAdmin(bytes32)":"248a9ca3","getSchedules(address,address)":"c5dbc452","getTotalEmployees(address)":"4b9136f5","getTotalPayrollLiability(address)":"15e1bbc4","grantRole(bytes32,address)":"2f2ff15d","hasRole(bytes32,address)":"91d14854","hasSufficientBalanceForPayroll(address)":"040f7f94","initialize(address,address)":"485cc955","paused()":"5c975abb","processAllPayrolls()":"bb97eab7","reactivateEmployee(address)":"0e6edd37","removeAiAgent(address)":"de395c46","renounceRole(bytes32,address)":"36568abe","revokeRole(bytes32,address)":"d547741f","supportsInterface(bytes4)":"01ffc9a7","updateEmployeeSalary(address,uint256)":"ec34ece8","updateSalariesBatch(address[],uint256[])":"009da8b9","updateSchedule(address,uint256,uint8)":"cf2622bd","usdcToken()":"11eac855","withdrawFunds(uint256)":"155dd5ee"},"id":3}